{
  "transactions": [
    {
      "hash": "0x63e21d7fd56a76c72bc8310629388fc1066a1a269db96e6f520a7d888cb32e67",
      "transactionType": "CALL",
      "contractName": null,
      "contractAddress": "0xdb4cea5ce78ad8ee36118b667ed2335900615d8a",
      "function": "propose(address,bytes,uint256)",
      "arguments": [
        "0xCa034D63c67ADd6CA127a575F0097C203DAcaE9d",
        "0x924e63f60000000000000000000000001d5df06e32bbf1ee2150e04a071c34d0c28c4409",
        "0"
      ],
      "transaction": {
        "from": "0xf697f84f044614e34cdfbd5df99b056af730716b",
        "to": "0xdb4cea5ce78ad8ee36118b667ed2335900615d8a",
        "value": "0x0",
        "input": "0x31c2bd0b000000000000000000000000ca034d63c67add6ca127a575f0097c203dacae9d000000000000000000000000000000000000000000000000000000000000006000000000000000000000000000000000000000000000000000000000000000000000000000000000000000000000000000000000000000000000000000000024924e63f60000000000000000000000001d5df06e32bbf1ee2150e04a071c34d0c28c440900000000000000000000000000000000000000000000000000000000",
        "nonce": "0x2c",
        "chainId": "0x3e7"
      },
      "additionalContracts": [],
      "isFixedGasLimit": false
    },
    {
      "hash": "0xb940001428c5833a98fe7e2295c8f5e06641d6afc5262d04e5ecab8f5bd25998",
      "transactionType": "CALL",
      "contractName": null,
      "contractAddress": "0xdb4cea5ce78ad8ee36118b667ed2335900615d8a",
      "function": "approve(uint256)",
      "arguments": [
        "3"
      ],
      "transaction": {
        "from": "0xb27bf0b2d6e578976e9b053c3209f1dd949fed7e",
        "to": "0xdb4cea5ce78ad8ee36118b667ed2335900615d8a",
        "value": "0x0",
        "input": "0xb759f9540000000000000000000000000000000000000000000000000000000000000003",
        "nonce": "0x6",
        "chainId": "0x3e7"
      },
      "additionalContracts": [],
      "isFixedGasLimit": false
    },
    {
      "hash": "0xe9018ff07986be89eb9b4b2b112513ee665f44e1b4d65503f4ebc1289335722d",
      "transactionType": "CALL",
      "contractName": null,
      "contractAddress": "0xdb4cea5ce78ad8ee36118b667ed2335900615d8a",
      "function": "execute(uint256)",
      "arguments": [
        "3"
      ],
      "transaction": {
        "from": "0xf697f84f044614e34cdfbd5df99b056af730716b",
        "to": "0xdb4cea5ce78ad8ee36118b667ed2335900615d8a",
        "value": "0x0",
        "input": "0xfe0d94c10000000000000000000000000000000000000000000000000000000000000003",
        "nonce": "0x2d",
        "chainId": "0x3e7"
      },
      "additionalContracts": [],
      "isFixedGasLimit": false
    }
  ],
  "receipts": [
    {
      "status": "0x1",
      "cumulativeGasUsed": "0xf816a",
      "logs": [
        {
          "address": "0xdb4cea5ce78ad8ee36118b667ed2335900615d8a",
          "topics": [
            "0x32f0cddfa75dbff518348353b98c65a912b8fa1349c8ffe9fb71cb83083f9ee6",
            "0x0000000000000000000000000000000000000000000000000000000000000003",
            "0x000000000000000000000000ca034d63c67add6ca127a575f0097c203dacae9d"
          ],
          "data": "0x000000000000000000000000000000000000000000000000000000000000004000000000000000000000000000000000000000000000000000000000697a17b90000000000000000000000000000000000000000000000000000000000000024924e63f60000000000000000000000001d5df06e32bbf1ee2150e04a071c34d0c28c440900000000000000000000000000000000000000000000000000000000",
          "blockHash": "0x91ac0ef4caf57f0f24114a6ca66e3b9734ebda74a787beaead8a2865fb9ed071",
          "blockNumber": "0x1895681",
          "blockTimestamp": "0x697a17b9",
          "transactionHash": "0x63e21d7fd56a76c72bc8310629388fc1066a1a269db96e6f520a7d888cb32e67",
          "transactionIndex": "0x2",
          "logIndex": "0x0",
          "removed": false
        },
        {
          "address": "0xdb4cea5ce78ad8ee36118b667ed2335900615d8a",
          "topics": [
            "0x049c28adfe50bcf1b76fd95273b6a24566b9f377e52fddc653c3355248dad07a",
            "0x0000000000000000000000000000000000000000000000000000000000000003",
            "0x000000000000000000000000f697f84f044614e34cdfbd5df99b056af730716b"
          ],
          "data": "0x",
          "blockHash": "0x91ac0ef4caf57f0f24114a6ca66e3b9734ebda74a787beaead8a2865fb9ed071",
          "blockNumber": "0x1895681",
          "blockTimestamp": "0x697a17b9",
          "transactionHash": "0x63e21d7fd56a76c72bc8310629388fc1066a1a269db96e6f520a7d888cb32e67",
          "transactionIndex": "0x2",
          "logIndex": "0x1",
          "removed": false
        }
      ],
      "logsBloom": "0x00000000000000000000000000000000000000000000000010000040000000000000200000000010000000000000000000000800020000000000000000000000000000000000000002000004000000000002000000000000000000000000000000000000000000000000000000000000002000000000000000000000100000200000000000000000000000000000000000000000000000000000000000000000000000000000000000000000000000000000000400800000000000000000400000000000000000000000000000000000000000000000000080000000000000000000000000000000000000010000000000000020000000000000000000000000",
      "type": "0x0",
      "transactionHash": "0x63e21d7fd56a76c72bc8310629388fc1066a1a269db96e6f520a7d888cb32e67",
      "transactionIndex": "0x2",
      "blockHash": "0x91ac0ef4caf57f0f24114a6ca66e3b9734ebda74a787beaead8a2865fb9ed071",
      "blockNumber": "0x1895681",
      "gasUsed": "0x2fa62",
      "effectiveGasPrice": "0x5f5e100",
      "from": "0xf697f84f044614e34cdfbd5df99b056af730716b",
      "to": "0xdb4cea5ce78ad8ee36118b667ed2335900615d8a",
      "contractAddress": null
    },
    {
      "status": "0x1",
      "cumulativeGasUsed": "0x3468c",
      "logs": [
        {
          "address": "0xdb4cea5ce78ad8ee36118b667ed2335900615d8a",
          "topics": [
            "0x049c28adfe50bcf1b76fd95273b6a24566b9f377e52fddc653c3355248dad07a",
            "0x0000000000000000000000000000000000000000000000000000000000000003",
            "0x000000000000000000000000b27bf0b2d6e578976e9b053c3209f1dd949fed7e"
          ],
          "data": "0x",
          "blockHash": "0x2c552efb90dd8e4724a140626da5fcbabd374e280226fbefaf6131959db3547a",
          "blockNumber": "0x1895684",
          "blockTimestamp": "0x697a17bc",
          "transactionHash": "0xb940001428c5833a98fe7e2295c8f5e06641d6afc5262d04e5ecab8f5bd25998",
          "transactionIndex": "0x1",
          "logIndex": "0x5",
          "removed": false
        }
      ],
      "logsBloom": "0x00000000000000000000000000000000000000000008000000000000000000000000000000000000000000800000000000000800020000000000000000000000000000000000000002000000000000000002000000000000000000000000000000000000000000000000000000000000002000000000000000000000000000000000000000000000000000000000000000000000000000000000000000000000000000000000000000000000000000000000000000800000000000000000400000000000000000000000000000000000000400000000000080000000000000000000000000000000000000000000000000000020000000000000000000000000",
      "type": "0x0",
      "transactionHash": "0xb940001428c5833a98fe7e2295c8f5e06641d6afc5262d04e5ecab8f5bd25998",
      "transactionIndex": "0x1",
      "blockHash": "0x2c552efb90dd8e4724a140626da5fcbabd374e280226fbefaf6131959db3547a",
      "blockNumber": "0x1895684",
      "gasUsed": "0xe877",
      "effectiveGasPrice": "0x5f5e100",
      "from": "0xb27bf0b2d6e578976e9b053c3209f1dd949fed7e",
      "to": "0xdb4cea5ce78ad8ee36118b667ed2335900615d8a",
      "contractAddress": null
    },
    {
      "status": "0x1",
      "cumulativeGasUsed": "0xb63ca",
      "logs": [
        {
          "address": "0xca034d63c67add6ca127a575f0097c203dacae9d",
          "topics": [
            "0xb4c76b2b8896a181ce9371cce53fa8d343bc6eebba0fc08aafed13e962f0fa78",
            "0x000000000000000000000000f697f84f044614e34cdfbd5df99b056af730716b",
            "0x0000000000000000000000001d5df06e32bbf1ee2150e04a071c34d0c28c4409"
          ],
          "data": "0x",
          "blockHash": "0x8ef6c481de3e0e20330a710cad4f028c6202db62cdcdb213884dced6c2e773cc",
          "blockNumber": "0x1895686",
          "blockTimestamp": "0x697a17be",
          "transactionHash": "0xe9018ff07986be89eb9b4b2b112513ee665f44e1b4d65503f4ebc1289335722d",
          "transactionIndex": "0x1",
          "logIndex": "0x0",
          "removed": false
        },
        {
          "address": "0xdb4cea5ce78ad8ee36118b667ed2335900615d8a",
          "topics": [
            "0x712ae1383f79ac853f8d882153778e0260ef8f03b504e2866e0593e04d2b291f",
            "0x0000000000000000000000000000000000000000000000000000000000000003"
          ],
          "data": "0x",
          "blockHash": "0x8ef6c481de3e0e20330a710cad4f028c6202db62cdcdb213884dced6c2e773cc",
          "blockNumber": "0x1895686",
          "blockTimestamp": "0x697a17be",
          "transactionHash": "0xe9018ff07986be89eb9b4b2b112513ee665f44e1b4d65503f4ebc1289335722d",
          "transactionIndex": "0x1",
          "logIndex": "0x1",
          "removed": false
        }
      ],
      "logsBloom": "0x00000000000000000000000000000000000000000000000010000040000000000000000000000000000000000000000000000000020000040000000000000000000000000000000002000000000000008002004000000000000000000000000000000000000000000000000000000000000000000000000000000000100000000000000000000000000000000000000000000000000000000000000100000001000000000020100000000004000000000000000000800000000020000000400000000000000000000080000000000000000004000000000000000000000001000000000000000000000000000000000000000020000000000000000000000000",
      "type": "0x0",
      "transactionHash": "0xe9018ff07986be89eb9b4b2b112513ee665f44e1b4d65503f4ebc1289335722d",
      "transactionIndex": "0x1",
      "blockHash": "0x8ef6c481de3e0e20330a710cad4f028c6202db62cdcdb213884dced6c2e773cc",
      "blockNumber": "0x1895686",
      "gasUsed": "0x12404",
      "effectiveGasPrice": "0x5f5e100",
      "from": "0xf697f84f044614e34cdfbd5df99b056af730716b",
      "to": "0xdb4cea5ce78ad8ee36118b667ed2335900615d8a",
      "contractAddress": null
    }
  ],
  "libraries": [],
  "pending": [],
  "returns": {},
  "timestamp": 1769609151871,
  "chain": 999,
  "commit": "dc9d2a5e"
}