{
  "transactions": [
    {
      "hash": "0x9845bed6da26fa003e88606701004e713f97cd825e9ac9f535f574a2c639be04",
      "transactionType": "CALL",
      "contractName": null,
      "contractAddress": "0xbeca9c722eef9897b5aa87363f3bd9c94e16fe33",
      "function": "setVerificationKey(uint256[2],uint256[2][2],uint256[2][2],uint256[2][2],uint256[2][])",
      "arguments": [
        "[20491192805390485299153009773594534940189261866228447918068658471970481763042, 9383485363053290200918347156157836566562967994039712273449902621266178545958]",
        "[[6375614351688725206403948262868962793625744043794305715222011528459656738731, 4252822878758300859123897981450591353533073413197771768651442665752259397132], [10505242626370262277552901082094356697409835680220590971873171140371331206856, 21847035105528745403288232691147584728191162732299865338377159692350059136679]]",
        "[[10857046999023057135944570762232829481370756359578518086990519993285655852781, 11559732032986387107991004021392285783925812861821192530917403151452391805634], [8495653923123431417604973247489272438418190587263600148770280649306958101930, 4082367875863433681332203403145435568316851327593401208105741076214120093531]]",
        "[[6270982721560078223710675548946658623431242131309150325368548470725422924278, 15792935853340806678541013381236318957525297919032586847243418110990829175574], [12618417429723660274849279621605746554718616322161197798238886403862908372775, 5417747995245839142507193961378167256446211105957420991676709608916407799877]]",
        "[[10378135837474478460620464632455258028049008296913588133072760774368897943674, 17507773511028576401554235685832436646795063431492176864637841356341846548533], [3125674560301784404012638097642365033871446711040183509403191186767986437600, 11280427027174520751550264199503656097825639246826311845971817383100601513234], [6734726672255423786775157509470369691770481756273187188387361047720157490982, 15717810961147472403549612059851035472285228238395046593226801399058876297477]]"
      ],
      "transaction": {
        "from": "0xf697f84f044614e34cdfbd5df99b056af730716b",
        "to": "0xbeca9c722eef9897b5aa87363f3bd9c94e16fe33",
        "gas": "0xb3c9c",
        "value": "0x0",
        "input": "0xbd17bac92d4d9aa7e302d9df41749d5507949d05dbea33fbb16c643b22f599a2be6df2e214bedd503c37ceb061d8ec60209fe345ce89830a19230301f076caff004d19260e187847ad4c798374d0d6732bf501847dd68bc0e071241e0213bc7fc13db7ab0967032fcbf776d1afc985f88877f182d38480a653f2decaa9794cbc3bf3060c1739c1b1a457a8c7313123d24d2f9192f896b7c63eea05a9d57f06547ad0cec8304cfbd1e08a704a99f5e847d93f8c3caafddec46b7a0d379da69a4d112346a71800deef121f1e76426a00665e5c4479674322d4f75edadd46debd5cd992f6ed198e9393920d483a7260bfb731fb5d25f1aa493335a9e71297e485b7aef312c212c85ea5db8c6deb4aab71808dcb408fe3d1e7690c43d37b4ce6cc0166fa7daa090689d0585ff075ec9e99ad690c3395bc4b313370b38ef355acdadcd122975b0ddd401cd11018e1f0a4a62785d8ab67b35d7437347c5883976b0e2f6568c1f622ea7c240bd622b80df06f31949ce895c528204705ea50569a29e653de5b43161be5c56b6c379dbb063383689fed87db394fd9a598b430435a6e2f2ed2e807270bfa5631de4faae944769f2c3e0091e3802510af305b2fdd9100fea93d5fd04500000000000000000000000000000000000000000000000000000000000001e0000000000000000000000000000000000000000000000000000000000000000316f1d114cf6fbf6ac13227ab7a6581afb55274292da5c0d38b0884d4eda2487a26b50c73eb64074a3d858ea7a3f42142ecc100b71e31dd3dc0680cedcd1d203506e911b10a8b271490f08dbac915656cca03dda2ce3319320615ecec7d222de018f07ed51da2ae4c053755cd2874a4c26b9b234a6e3fc5fb09181677d22eb5120ee3b85ff593aad4597e737678afbf47df5d4ed148336e1aafbae7999f9faf2622bff73aec9f2bad97250f9752ccf9d2975bfe9953223a46433b8851908f7105",
        "nonce": "0x16",
        "chainId": "0x3e7"
      },
      "additionalContracts": [],
      "isFixedGasLimit": false
    }
  ],
  "receipts": [
    {
      "status": "0x1",
      "cumulativeGasUsed": "0x7aeea",
      "logs": [
        {
          "address": "0xbeca9c722eef9897b5aa87363f3bd9c94e16fe33",
          "topics": [
            "0x9af3b9a9c4ddf5e66d50dad8ab096ead01046f182f2a89faf8e51270d7b81448"
          ],
          "data": "0x",
          "blockHash": "0x4da88d6eb6f1c98709d9c5ded1ec0ebed3d0d07f3880338834636900760bb9f3",
          "blockNumber": "0x1894606",
          "blockTimestamp": "0x697a0783",
          "transactionHash": "0x9845bed6da26fa003e88606701004e713f97cd825e9ac9f535f574a2c639be04",
          "transactionIndex": "0x0",
          "logIndex": "0x0",
          "removed": false
        }
      ],
      "logsBloom": "0x00010000000000000000000000000000000000000000000000200000000000000000000000000000000000000000000000000000000000000000000000000000000000000000000000000000000000000000000000000000000000000000000000000000000000000000000000000004000000000000000000000040000000000000000000000000000000000000000000000000000000000000000000000000000000000000000000000000000000000000000000000000001000000800000000000000000000000000000000000000000000000000000000000000000000000000000000000000000000000000000000000000000000000000000000000000",
      "type": "0x2",
      "transactionHash": "0x9845bed6da26fa003e88606701004e713f97cd825e9ac9f535f574a2c639be04",
      "transactionIndex": "0x0",
      "blockHash": "0x4da88d6eb6f1c98709d9c5ded1ec0ebed3d0d07f3880338834636900760bb9f3",
      "blockNumber": "0x1894606",
      "gasUsed": "0x7aeea",
      "effectiveGasPrice": "0x6127d380",
      "from": "0xf697f84f044614e34cdfbd5df99b056af730716b",
      "to": "0xbeca9c722eef9897b5aa87363f3bd9c94e16fe33",
      "contractAddress": null
    }
  ],
  "libraries": [],
  "pending": [],
  "returns": {},
  "timestamp": 1769604997254,
  "chain": 999,
  "commit": "1a8d1e11"
}