{
  "transactions": [
    {
      "hash": "0xfe5478c7523663a532cc221b4cf89829f7aeee702772045e453e1ec7151c3171",
      "transactionType": "CALL",
      "contractName": null,
      "contractAddress": "0x5adf9b47342c2e0a425f3c99735b6e01fed4201e",
      "function": "setVerificationKey(uint256[2],uint256[2][2],uint256[2][2],uint256[2][2],uint256[2][])",
      "arguments": [
        "[19687788750966213435272653627052398458365200705945065655918392433672235595637, 8412692021608171652433342622880920174195020811652199669439178550344548565692]",
        "[[11048034987308014892302699221719044812920802107559703694541891528801186873743, 7265739936943910762390921703635215985297500143079651581224217492165888908451], [16176642613023971730161303523097164296181026106706543363911172533661922330696, 6589649486194421614971065605382473354394933078595011334479087421067367339200]]",
        "[[11559732032986387107991004021392285783925812861821192530917403151452391805634, 10857046999023057135944570762232829481370756359578518086990519993285655852781], [4082367875863433681332203403145435568316851327593401208105741076214120093531, 8495653923123431417604973247489272438418190587263600148770280649306958101930]]",
        "[[4232187558395822073507751086230669127040621561887175921754999021050217735993, 195511122929969342933028040988738138408926130862304360613739539947400705031], [13219241083029510189548183779177293653066796979361806999965969792742760029823, 14463069747656446852229766090620478286459266330040664208518317218426599852888]]",
        "[[3885179342893076760146590059896255916234200223180573966675491680991774567925, 5714148625987338345107837279162592146498544597236501412542808103584526247578], [1464778759128886018046126095393212240271135607367742357457072963758008867501, 12882906718780226601036224618599977105387918282629373841228213846747904670304], [1776940340468540159058882835467851000599078153228635420115649963989259773731, 18409479773723235411941712226007450022791300813415429953300847879324535710086]]"
      ],
      "transaction": {
        "from": "0xf697f84f044614e34cdfbd5df99b056af730716b",
        "to": "0x5adf9b47342c2e0a425f3c99735b6e01fed4201e",
        "gas": "0xaa4d9",
        "value": "0x0",
        "input": "0xbd17bac92b86e4bf4901e312c6b15d4a96cbe3aa8bd9e0fdb4f7a1dc146537bbe479377512996a39e764b2a08502ed266cf7ad82c9666d2b80b561a928d9d0aa40f342bc186cf7594781fc261da95528592ef7680a14826b20ae133b0ec3841358da018f10104358a252cc8185995f4b5975a99dfe2cc2c094a6999b76bb0fc374dd1ca323c3a7bec6e9f7b01e775ff4594683223622f1da95257f3ea9b7c7a9b76988480e919c040cf86ad4bd81b4a97fc7c470e138cd9fde7b683f22a5bb84ae2cd4c0198e9393920d483a7260bfb731fb5d25f1aa493335a9e71297e485b7aef312c21800deef121f1e76426a00665e5c4479674322d4f75edadd46debd5cd992f6ed090689d0585ff075ec9e99ad690c3395bc4b313370b38ef355acdadcd122975b12c85ea5db8c6deb4aab71808dcb408fe3d1e7690c43d37b4ce6cc0166fa7daa095b55513982605c0ad5f13e06a71127e55051ebb3ece1016c247d6c3e85a739006ea7c698d4c2b34fe6b39ec78d8bcfda0c5c6661936358d9136affb97bb4071d39d347537016b7ee235b38035a9bc7826b6783308466b5d8fc66510e4a9e7f1ff9ceb0a88557a0d1bf5f72dc2e0a0699b3214042e8dcbaea5ac3ac60094b5800000000000000000000000000000000000000000000000000000000000001e000000000000000000000000000000000000000000000000000000000000000030896eeff26de24cd8328907058ed2b5a7ef774e3345de4fc7add7dcc72f4edf50ca217f04b672dbe47ce25ee6f9f957915b4266aec14fbb595d940959da0269a033d090fd3dbba4c60c781db0b129efbdcabaf04fedfe76e5d638e81023c9aad1c7b7780667b521f737ae01cd5aff4fb775f2df051e33e59b9cbfcfd82eafa6003edb66c6717ae6b29575ac66c7e6dcced613304f1a8df98208bbe4ca40be72328b36574139570cc3ef8e7c7355d41fc55ba343bdde47c90d792e4eaef296186",
        "nonce": "0x5",
        "chainId": "0x3e7"
      },
      "additionalContracts": [],
      "isFixedGasLimit": false
    }
  ],
  "receipts": [
    {
      "status": "0x1",
      "cumulativeGasUsed": "0xc6289",
      "logs": [
        {
          "address": "0x5adf9b47342c2e0a425f3c99735b6e01fed4201e",
          "topics": [
            "0x9af3b9a9c4ddf5e66d50dad8ab096ead01046f182f2a89faf8e51270d7b81448"
          ],
          "data": "0x",
          "blockHash": "0xefc403c979c5051664312039cb01f58d7fe6208e20100dd56fbda90b76adcce6",
          "blockNumber": "0x173068d",
          "blockTimestamp": "0x696424bc",
          "transactionHash": "0xfe5478c7523663a532cc221b4cf89829f7aeee702772045e453e1ec7151c3171",
          "transactionIndex": "0x1",
          "logIndex": "0xb",
          "removed": false
        }
      ],
      "logsBloom": "0x00010000000000000000000000000000000000000000000000000000000000000000000000000000000000000000000000000000000000000000000000000000000000000000000000000000000000000000000000000000000000000000000000000000000000000000000000000000000000000000000000000040000000000000000000000000080000000000000000000000000000000000000000000000000000000000000000000000000000000000000000000000001000000000000000000000000000000000000000000000002000000000000000000000000000000000100000000000000000000000000000000000000000000000000000000000",
      "type": "0x0",
      "transactionHash": "0xfe5478c7523663a532cc221b4cf89829f7aeee702772045e453e1ec7151c3171",
      "transactionIndex": "0x1",
      "blockHash": "0xefc403c979c5051664312039cb01f58d7fe6208e20100dd56fbda90b76adcce6",
      "blockNumber": "0x173068d",
      "gasUsed": "0x7b4bf",
      "effectiveGasPrice": "0x5f5e100",
      "from": "0xf697f84f044614e34cdfbd5df99b056af730716b",
      "to": "0x5adf9b47342c2e0a425f3c99735b6e01fed4201e",
      "contractAddress": null
    }
  ],
  "libraries": [],
  "pending": [],
  "returns": {},
  "timestamp": 1768170684469,
  "chain": 999,
  "commit": "56f49d55"
}