{
  "transactions": [
    {
      "hash": "0x11b3005e682581fcc8243242c192c4a7bcbd6fadf8398e2534bd7bb84ee80999",
      "transactionType": "CALL",
      "contractName": null,
      "contractAddress": "0xdb4cea5ce78ad8ee36118b667ed2335900615d8a",
      "function": "execute(uint256)",
      "arguments": [
        "0"
      ],
      "transaction": {
        "from": "0xf697f84f044614e34cdfbd5df99b056af730716b",
        "to": "0xdb4cea5ce78ad8ee36118b667ed2335900615d8a",
        "value": "0x0",
        "input": "0xfe0d94c10000000000000000000000000000000000000000000000000000000000000000",
        "nonce": "0x29",
        "chainId": "0x3e7"
      },
      "additionalContracts": [],
      "isFixedGasLimit": false
    },
    {
      "hash": "0xbfd741c1a0e1082d7767dd8ef0b66f901951bc04d64f9595fb06d0a2064db8d7",
      "transactionType": "CALL",
      "contractName": null,
      "contractAddress": "0xdb4cea5ce78ad8ee36118b667ed2335900615d8a",
      "function": "execute(uint256)",
      "arguments": [
        "1"
      ],
      "transaction": {
        "from": "0xf697f84f044614e34cdfbd5df99b056af730716b",
        "to": "0xdb4cea5ce78ad8ee36118b667ed2335900615d8a",
        "value": "0x0",
        "input": "0xfe0d94c10000000000000000000000000000000000000000000000000000000000000001",
        "nonce": "0x2a",
        "chainId": "0x3e7"
      },
      "additionalContracts": [],
      "isFixedGasLimit": false
    },
    {
      "hash": "0x6f376f5d1e572e539816fc7eb69c455bc6af5d31ef9ff76a1d8ba3381542baf2",
      "transactionType": "CALL",
      "contractName": null,
      "contractAddress": "0xdb4cea5ce78ad8ee36118b667ed2335900615d8a",
      "function": "execute(uint256)",
      "arguments": [
        "2"
      ],
      "transaction": {
        "from": "0xf697f84f044614e34cdfbd5df99b056af730716b",
        "to": "0xdb4cea5ce78ad8ee36118b667ed2335900615d8a",
        "value": "0x0",
        "input": "0xfe0d94c10000000000000000000000000000000000000000000000000000000000000002",
        "nonce": "0x2b",
        "chainId": "0x3e7"
      },
      "additionalContracts": [],
      "isFixedGasLimit": false
    }
  ],
  "receipts": [
    {
      "status": "0x1",
      "cumulativeGasUsed": "0x189e8d",
      "logs": [
        {
          "address": "0xca034d63c67add6ca127a575f0097c203dacae9d",
          "topics": [
            "0xeea727eb6f741f10667c9ff77aa3a88a17a67fc7e7aedc3526b3f89e9d2da97e",
            "0x000000000000000000000000f697f84f044614e34cdfbd5df99b056af730716b",
            "0x000000000000000000000000db4cea5ce78ad8ee36118b667ed2335900615d8a"
          ],
          "data": "0x",
          "blockHash": "0x4ca3aaac3e7f614127aae240ca3fef2f7b45c31cf3a1f1b7131471d536dc3594",
          "blockNumber": "0x1894995",
          "blockTimestamp": "0x697a0b03",
          "transactionHash": "0x11b3005e682581fcc8243242c192c4a7bcbd6fadf8398e2534bd7bb84ee80999",
          "transactionIndex": "0x9",
          "logIndex": "0xe",
          "removed": false
        },
        {
          "address": "0xdb4cea5ce78ad8ee36118b667ed2335900615d8a",
          "topics": [
            "0x712ae1383f79ac853f8d882153778e0260ef8f03b504e2866e0593e04d2b291f",
            "0x0000000000000000000000000000000000000000000000000000000000000000"
          ],
          "data": "0x",
          "blockHash": "0x4ca3aaac3e7f614127aae240ca3fef2f7b45c31cf3a1f1b7131471d536dc3594",
          "blockNumber": "0x1894995",
          "blockTimestamp": "0x697a0b03",
          "transactionHash": "0x11b3005e682581fcc8243242c192c4a7bcbd6fadf8398e2534bd7bb84ee80999",
          "transactionIndex": "0x9",
          "logIndex": "0xf",
          "removed": false
        }
      ],
      "logsBloom": "0x00000000000000000000000000000000000000000000000010000040000000000000000000000000000000000010000000000000000000000000000000000000000000000000000002000000000000008002004080000000000000000000000000000400020000000000000000000800000000000000000000000000100000000000000000000000000000000000000000000000000000040000000000000000000004000020000000000000000000000000000200000000000020000000000000000000000000000080000000000000000000000000000000000000000021000000000000000000000000000000000000000020000000000000000000000000",
      "type": "0x0",
      "transactionHash": "0x11b3005e682581fcc8243242c192c4a7bcbd6fadf8398e2534bd7bb84ee80999",
      "transactionIndex": "0x9",
      "blockHash": "0x4ca3aaac3e7f614127aae240ca3fef2f7b45c31cf3a1f1b7131471d536dc3594",
      "blockNumber": "0x1894995",
      "gasUsed": "0x1096b",
      "effectiveGasPrice": "0x61fa06f",
      "from": "0xf697f84f044614e34cdfbd5df99b056af730716b",
      "to": "0xdb4cea5ce78ad8ee36118b667ed2335900615d8a",
      "contractAddress": null
    },
    {
      "status": "0x1",
      "cumulativeGasUsed": "0x11380a",
      "logs": [
        {
          "address": "0xf5b2b62f014459b98991aae001e33af75f4fbd15",
          "topics": [
            "0xeea727eb6f741f10667c9ff77aa3a88a17a67fc7e7aedc3526b3f89e9d2da97e",
            "0x000000000000000000000000f697f84f044614e34cdfbd5df99b056af730716b",
            "0x000000000000000000000000db4cea5ce78ad8ee36118b667ed2335900615d8a"
          ],
          "data": "0x",
          "blockHash": "0x659a2477bb37ccb312fbbe49670b938ab9b0b9089d644eb6b20b896535b1e83f",
          "blockNumber": "0x1894998",
          "blockTimestamp": "0x697a0b06",
          "transactionHash": "0xbfd741c1a0e1082d7767dd8ef0b66f901951bc04d64f9595fb06d0a2064db8d7",
          "transactionIndex": "0x3",
          "logIndex": "0x21",
          "removed": false
        },
        {
          "address": "0xdb4cea5ce78ad8ee36118b667ed2335900615d8a",
          "topics": [
            "0x712ae1383f79ac853f8d882153778e0260ef8f03b504e2866e0593e04d2b291f",
            "0x0000000000000000000000000000000000000000000000000000000000000001"
          ],
          "data": "0x",
          "blockHash": "0x659a2477bb37ccb312fbbe49670b938ab9b0b9089d644eb6b20b896535b1e83f",
          "blockNumber": "0x1894998",
          "blockTimestamp": "0x697a0b06",
          "transactionHash": "0xbfd741c1a0e1082d7767dd8ef0b66f901951bc04d64f9595fb06d0a2064db8d7",
          "transactionIndex": "0x3",
          "logIndex": "0x22",
          "removed": false
        }
      ],
      "logsBloom": "0x00000000000000000000000000000000000000000000000010000040000000000000000000000000000000000010000004000000000000000000000000040000000000000000000002000000000000000002004080040000000000000000000000000400000000000000000000000000000000000000000000000000100000000000000000000000000000000000000000000800000000040000000000000000000004000020000000000000000000000000000200000000000020000000000020000000000000000000000000000000000000000000000000000000000040000000000000000000000000000000000000000020000000000000000000000000",
      "type": "0x0",
      "transactionHash": "0xbfd741c1a0e1082d7767dd8ef0b66f901951bc04d64f9595fb06d0a2064db8d7",
      "transactionIndex": "0x3",
      "blockHash": "0x659a2477bb37ccb312fbbe49670b938ab9b0b9089d644eb6b20b896535b1e83f",
      "blockNumber": "0x1894998",
      "gasUsed": "0x10992",
      "effectiveGasPrice": "0x61fa06f",
      "from": "0xf697f84f044614e34cdfbd5df99b056af730716b",
      "to": "0xdb4cea5ce78ad8ee36118b667ed2335900615d8a",
      "contractAddress": null
    },
    {
      "status": "0x1",
      "cumulativeGasUsed": "0x9b1a0",
      "logs": [
        {
          "address": "0xbeca9c722eef9897b5aa87363f3bd9c94e16fe33",
          "topics": [
            "0xeea727eb6f741f10667c9ff77aa3a88a17a67fc7e7aedc3526b3f89e9d2da97e",
            "0x000000000000000000000000f697f84f044614e34cdfbd5df99b056af730716b",
            "0x000000000000000000000000db4cea5ce78ad8ee36118b667ed2335900615d8a"
          ],
          "data": "0x",
          "blockHash": "0xfd43e176adae4c7774f26fa00eea7286d00082205dfe3292ea6a68e3e7217747",
          "blockNumber": "0x189499b",
          "blockTimestamp": "0x697a0b09",
          "transactionHash": "0x6f376f5d1e572e539816fc7eb69c455bc6af5d31ef9ff76a1d8ba3381542baf2",
          "transactionIndex": "0x2",
          "logIndex": "0x16",
          "removed": false
        },
        {
          "address": "0xdb4cea5ce78ad8ee36118b667ed2335900615d8a",
          "topics": [
            "0x712ae1383f79ac853f8d882153778e0260ef8f03b504e2866e0593e04d2b291f",
            "0x0000000000000000000000000000000000000000000000000000000000000002"
          ],
          "data": "0x",
          "blockHash": "0xfd43e176adae4c7774f26fa00eea7286d00082205dfe3292ea6a68e3e7217747",
          "blockNumber": "0x189499b",
          "blockTimestamp": "0x697a0b09",
          "transactionHash": "0x6f376f5d1e572e539816fc7eb69c455bc6af5d31ef9ff76a1d8ba3381542baf2",
          "transactionIndex": "0x2",
          "logIndex": "0x17",
          "removed": false
        }
      ],
      "logsBloom": "0x04000000000000000000000000000000000000000000000010200040000000000000000000000000000000000010000000000000000000000000000000000000000000000000000002000000000000000002004080000000000000000000000000000400000000000000000000000004000000000000000000000000100000000000000000000000000000000000000000000000000000040000000000000000000004000020000000000100000000000000000200000000000020000800000000000000000000000000000000000000000000000000000000000000000000000000000000000000000000000000000000000020008000000000000000000000",
      "type": "0x0",
      "transactionHash": "0x6f376f5d1e572e539816fc7eb69c455bc6af5d31ef9ff76a1d8ba3381542baf2",
      "transactionIndex": "0x2",
      "blockHash": "0xfd43e176adae4c7774f26fa00eea7286d00082205dfe3292ea6a68e3e7217747",
      "blockNumber": "0x189499b",
      "gasUsed": "0x1099b",
      "effectiveGasPrice": "0x61fa06f",
      "from": "0xf697f84f044614e34cdfbd5df99b056af730716b",
      "to": "0xdb4cea5ce78ad8ee36118b667ed2335900615d8a",
      "contractAddress": null
    }
  ],
  "libraries": [],
  "pending": [],
  "returns": {},
  "timestamp": 1769605897486,
  "chain": 999,
  "commit": "1a8d1e11"
}