{
  "transactions": [
    {
      "hash": "0x60c1242db2f768f3159cd362b327fd453c29677843ad7c3090266cc8cc8c85e7",
      "transactionType": "CALL",
      "contractName": null,
      "contractAddress": "0x77433163f73ba066cdbdffb5f09e61979bedd2e7",
      "function": "setVault(address)",
      "arguments": [
        "0x64305f9223D346f7AE4ffC87Da333a401707A7a7"
      ],
      "transaction": {
        "from": "0xf697f84f044614e34cdfbd5df99b056af730716b",
        "to": "0x77433163f73ba066cdbdffb5f09e61979bedd2e7",
        "gas": "0x1017f",
        "value": "0x0",
        "input": "0x6817031b00000000000000000000000064305f9223d346f7ae4ffc87da333a401707a7a7",
        "nonce": "0x3d",
        "chainId": "0x3e7"
      },
      "additionalContracts": [],
      "isFixedGasLimit": false
    }
  ],
  "receipts": [
    {
      "status": "0x1",
      "cumulativeGasUsed": "0xba6d",
      "logs": [
        {
          "address": "0x77433163f73ba066cdbdffb5f09e61979bedd2e7",
          "topics": [
            "0x483bdedaaf23706a9800ac1af0d852b34927780d79f9d6ba60a80c7cad75ea39",
            "0x0000000000000000000000000000000000000000000000000000000000000000",
            "0x00000000000000000000000064305f9223d346f7ae4ffc87da333a401707a7a7"
          ],
          "data": "0x",
          "blockHash": "0xd7c97ca1218d2a8a61bfedd00c03a06e9093b9ce21855205521f5b7f97f54180",
          "blockNumber": "0x18b09c4",
          "blockTimestamp": "0x697bc3d9",
          "transactionHash": "0x60c1242db2f768f3159cd362b327fd453c29677843ad7c3090266cc8cc8c85e7",
          "transactionIndex": "0x0",
          "logIndex": "0x0",
          "removed": false
        }
      ],
      "logsBloom": "0x00000200000000000000000000000000000000000000000000000000000000000000000000000000000000000000000200000000000000000000000000000000000000000000000000000000000000000000000000000000000000000000000000000000020000000000000000000800000000000000000000000200000000000000000000000000011000000000000000000000000000000000000000000000000000000000000000000000000000000000000000000000000080000000000000000000000000000000000000000000000000000000000000000000000020000000000000000000000000002000000000000000000000200000001000000000",
      "type": "0x2",
      "transactionHash": "0x60c1242db2f768f3159cd362b327fd453c29677843ad7c3090266cc8cc8c85e7",
      "transactionIndex": "0x0",
      "blockHash": "0xd7c97ca1218d2a8a61bfedd00c03a06e9093b9ce21855205521f5b7f97f54180",
      "blockNumber": "0x18b09c4",
      "gasUsed": "0xba6d",
      "effectiveGasPrice": "0x83e223c",
      "from": "0xf697f84f044614e34cdfbd5df99b056af730716b",
      "to": "0x77433163f73ba066cdbdffb5f09e61979bedd2e7",
      "contractAddress": null
    }
  ],
  "libraries": [],
  "pending": [],
  "returns": {},
  "timestamp": 1769718745589,
  "chain": 999,
  "commit": "d2c59111"
}