{
  "transactions": [
    {
      "hash": "0x8516cb2b9d19a040f17db988ce7687454367c5f9bc37e2af1b7c5de97986eb8f",
      "transactionType": "CREATE",
      "contractName": "AdminTimelock",
      "contractAddress": "0xdb4cea5ce78ad8ee36118b667ed2335900615d8a",
      "function": null,
      "arguments": [
        "[0xF697f84f044614e34cDFbD5Df99b056AF730716B, 0xB27bf0b2D6e578976e9B053c3209f1Dd949feD7E, 0x186Cff702A40e8F28C7A547f94afeC2Af6A5d1A6]"
      ],
      "transaction": {
        "from": "0xf697f84f044614e34cdfbd5df99b056af730716b",
        "gas": "0x1442b9",
        "value": "0x0",
        "input": "0x60803462000118576001600160401b0390601f6200119538819003918201601f19168301929190848411838510176200011c57819060409460405283398101606082820312620001185780601f8301121562000118576040519360608501908111858210176200011c576040528391606081019182116200011857915b818310620000f6575050505f5b60038110620000a25760405161103e9081620001578239f35b6001600160a01b0380620000b7838662000130565b511615620000e55790600191620000cf828662000130565b5116828060a01b03198254161781550162000089565b825163d92e233d60e01b8152600490fd5b82516001600160a01b038116810362000118578152602092830192016200007c565b5f80fd5b634e487b7160e01b5f52604160045260245ffd5b906003811015620001425760051b0190565b634e487b7160e01b5f52603260045260245ffdfe6080604052600436101561001a575b3615610018575f80fd5b005b5f3560e01c8063013cf08b14610bb05780632079fb9a14610b7e5780632358d5a814610b3457806331c2bd0b146107a157806340e58ee51461070f5780634a5bcbf8146106f557806359ecd657146106da5780637df73e27146106ad5780638f283a86146105d457806394cf795e146105465780639ac18b191461052b578063affed0e01461050e578063b759f95414610411578063c7f758a8146103aa578063cc63604a1461036b5763fe0d94c10361000e57346103675760208060031936011261036757600435906100ed33610e3d565b1561033d57815f52600481526001600160a01b038060405f2054161561031357825f526004825260405f20600581019081549260ff84166102e95760ff8460081c166102bf576002600483015410610295576003820154421061026b57600192600160ff198096161790558154169260016002830154920190604051935f92805461017781610c19565b936001821691821561025557505060011461021e575b505050915f939181859403925af1903d15610218575f3d916101ae83610e21565b926101bc6040519485610c89565b83523d92013e5b156101ee577f712ae1383f79ac853f8d882153778e0260ef8f03b504e2866e0593e04d2b291f5f80a2005b60046040517facfdb444000000000000000000000000000000000000000000000000000000008152fd5b506101c3565b909192505f52855f2090865f925b84841061024357505050908301905081835f61018d565b8054878501529201918790820161022c565b168752505050801515028301905081835f61018d565b60046040517f621e25c3000000000000000000000000000000000000000000000000000000008152fd5b60046040517f8af69cf1000000000000000000000000000000000000000000000000000000008152fd5b60046040517f54e37625000000000000000000000000000000000000000000000000000000008152fd5b60046040517f0dc10197000000000000000000000000000000000000000000000000000000008152fd5b60046040517f635e8737000000000000000000000000000000000000000000000000000000008152fd5b60046040517fa1b035c8000000000000000000000000000000000000000000000000000000008152fd5b5f80fd5b3461036757602036600319011261036757610387600435610e70565b906103a660405192839215158352604060208401526040830190610d4d565b0390f35b34610367576020366003190112610367576004355f52600460205260405f206001600160a01b038154166103a660028301549260038101549260048201546103f9600160058501549401610cab565b9460405196879660ff808760081c1696169488610d8b565b3461036757602080600319360112610367576004359061043033610e3d565b1561033d57815f52600481526001600160a01b0360405f2054161561031357815f526004815260405f20600581015460ff81166102e95760081c60ff166102bf57825f526005825260405f20335f52825260ff60405f2054166104e457600491835f526005815260405f2090335f525260405f20600160ff19825416179055016104ba8154610dff565b905533907f049c28adfe50bcf1b76fd95273b6a24566b9f377e52fddc653c3355248dad07a5f80a3005b60046040517f101f817a000000000000000000000000000000000000000000000000000000008152fd5b34610367575f366003190112610367576020600354604051908152f35b34610367575f36600319011261036757602060405160028152f35b34610367575f36600319011261036757606060405161056481610c51565b3690376040515f80825b600382106105b5578361058081610c51565b604051905f90825b6003831061059557606084f35b6001906001600160a01b0383511681526020809101920192019190610588565b6001602081926001600160a01b0386541681520193019101909161056e565b34610367576040366003190112610367576004356105f0610dd3565b9030330361033d576003811015610683576001600160a01b038092169182156106595781548373ffffffffffffffffffffffffffffffffffffffff19821617835516907fe17d23555cedf17d9fc8271be2ce42b107d14036efbdb054e1377280654db6fc5f80a4005b60046040517fd92e233d000000000000000000000000000000000000000000000000000000008152fd5b60046040517fbf8b646c000000000000000000000000000000000000000000000000000000008152fd5b346103675760203660031901126103675760206106d06106cb610de9565b610e3d565b6040519015158152f35b34610367575f36600319011261036757602060405160038152f35b34610367575f3660031901126103675760206040515f8152f35b346103675760203660031901126103675760043561072c33610e3d565b1561033d57805f5260046020526001600160a01b0360405f2054161561031357805f526004602052600560405f2001805460ff81166102e95760ff8160081c166102bf5761ff0019166101001790557f416e669c63d9a3a5e36ee7cc7e2104b8db28ccd286aa18966e98fa230c73b08c5f80a2005b34610367576060366003190112610367576107ba610de9565b60243567ffffffffffffffff811161036757366023820112156103675767ffffffffffffffff816004013511610367573660248260040135830101116103675761080333610e3d565b1561033d576003549061081582610dff565b6003556040519260e0840184811067ffffffffffffffff821117610b20576040526001600160a01b039384821681526108518360040135610e21565b61085e6040519182610c89565b60048401358082526024850160208301375f6020856004013583010152602082019081526044356040830152426060830152600160808301525f60a08301525f60c0830152845f52600460205260405f20908683511673ffffffffffffffffffffffffffffffffffffffff198354161782555180519067ffffffffffffffff8211610b20576108f06001840154610c19565b601f8111610ad8575b509160209793918795938990601f8311600114610a3c579282606095936005937f32f0cddfa75dbff518348353b98c65a912b8fa1349c8ffe9fb71cb83083f9ee69998965f92610a31575b50508160011b915f199060031b1c19161760018201555b6040830151600282015584830151600382015560808301516004820155019060a081015115159060ff61ff0060c08554930151151560081b1692169061ffff191617179055845f526005885260405f20335f52885260405f20600160ff198254161790556040519283916040835287600401356040840152876004013560248901858501375f84896004013585010152428a8401521695601f8019916004013501168101030190a36040519033817f049c28adfe50bcf1b76fd95273b6a24566b9f377e52fddc653c3355248dad07a5f80a38152f35b015190508d80610944565b60018493929897969594015f528a5f20905f5b601f1984168110610abe5750826060969594927f32f0cddfa75dbff518348353b98c65a912b8fa1349c8ffe9fb71cb83083f9ee6999a600193600596601f19811610610aa6575b505050811b01600182015561095b565b01515f1960f88460031b161c191690558d8080610a96565b818a01518355988c01988b98506001909201918c01610a4f565b600184015f5260205f20601f840160051c81019160208510610b16575b601f0160051c01905b818110610b0b57506108f9565b5f8155600101610afe565b9091508190610af5565b634e487b7160e01b5f52604160045260245ffd5b3461036757604036600319011261036757610b4d610dd3565b6004355f5260056020526001600160a01b0360405f2091165f52602052602060ff60405f2054166040519015158152f35b34610367576020366003190112610367576004356003811015610367576001600160a01b036020915416604051908152f35b34610367576020366003190112610367576004355f52600460205260405f206001600160a01b03815416906103a6610bea60018301610cab565b91600281015493600382015491600560048201549101549260405196879660ff808760081c1696169488610d8b565b90600182811c92168015610c47575b6020831014610c3357565b634e487b7160e01b5f52602260045260245ffd5b91607f1691610c28565b6060810190811067ffffffffffffffff821117610b2057604052565b6040810190811067ffffffffffffffff821117610b2057604052565b90601f8019910116810190811067ffffffffffffffff821117610b2057604052565b9060405191825f8254610cbd81610c19565b908184526020946001916001811690815f14610d2b5750600114610ced575b505050610ceb92500383610c89565b565b5f90815285812095935091905b818310610d13575050610ceb93508201015f8080610cdc565b85548884018501529485019487945091830191610cfa565b92505050610ceb94925060ff191682840152151560051b8201015f8080610cdc565b91908251928382525f5b848110610d77575050825f602080949584010152601f8019910116010190565b602081830181015184830182015201610d57565b95929796939060c095926001600160a01b03610db59216885260e0602089015260e0880190610d4d565b97604087015260608601526080850152151560a08401521515910152565b602435906001600160a01b038216820361036757565b600435906001600160a01b038216820361036757565b5f198114610e0d5760010190565b634e487b7160e01b5f52601160045260245ffd5b67ffffffffffffffff8111610b2057601f01601f191660200190565b5f5b60038110610e4d5750505f90565b6001600160a01b038082541690831614610e6957600101610e3f565b5050600190565b5f5260209060048252604091825f206001600160a01b0381541615610fd957600581015460ff8116610f9f5760081c60ff16610f66576002600482015410610f2d57600301544210610ef5577f52656164790000000000000000000000000000000000000000000000000000006001935191610eeb83610c6d565b6005835282015290565b7f54696d656c6f636b2061637469766500000000000000000000000000000000005f935191610f2383610c6d565b600f835282015290565b507f4e656564206d6f726520617070726f76616c73000000000000000000000000005f935191610f5c83610c6d565b6013835282015290565b507f43616e63656c6c656400000000000000000000000000000000000000000000005f935191610f9583610c6d565b6009835282015290565b50507f416c7265616479206578656375746564000000000000000000000000000000005f935191610fcf83610c6d565b6010835282015290565b507f4e6f7420666f756e6400000000000000000000000000000000000000000000005f935191610f9583610c6d56fea26469706673582212209e2ac0cfae4797b4f22e739cbb67b7644d489f18c5d4fa03508bd0f1c4463ee264736f6c63430008180033000000000000000000000000f697f84f044614e34cdfbd5df99b056af730716b000000000000000000000000b27bf0b2d6e578976e9b053c3209f1dd949fed7e000000000000000000000000186cff702a40e8f28c7a547f94afec2af6a5d1a6",
        "nonce": "0x22",
        "chainId": "0x3e7"
      },
      "additionalContracts": [],
      "isFixedGasLimit": false
    },
    {
      "hash": "0x627b6eed2c0e0aba7b9e26b82b27ee9c64874ca70d11819e62649d8e409926f8",
      "transactionType": "CALL",
      "contractName": null,
      "contractAddress": "0xca034d63c67add6ca127a575f0097c203dacae9d",
      "function": "transferAdmin(address)",
      "arguments": [
        "0xdb4CEA5Ce78aD8ee36118B667ED2335900615D8a"
      ],
      "transaction": {
        "from": "0xf697f84f044614e34cdfbd5df99b056af730716b",
        "to": "0xca034d63c67add6ca127a575f0097c203dacae9d",
        "gas": "0xa558",
        "value": "0x0",
        "input": "0x75829def000000000000000000000000db4cea5ce78ad8ee36118b667ed2335900615d8a",
        "nonce": "0x23",
        "chainId": "0x3e7"
      },
      "additionalContracts": [],
      "isFixedGasLimit": false
    },
    {
      "hash": "0x6f5542d1460e3d7988c04f105658e34f6f1474361aace9dc21d6f9c28b01ec18",
      "transactionType": "CALL",
      "contractName": null,
      "contractAddress": "0xf5b2b62f014459b98991aae001e33af75f4fbd15",
      "function": "transferAdmin(address)",
      "arguments": [
        "0xdb4CEA5Ce78aD8ee36118B667ED2335900615D8a"
      ],
      "transaction": {
        "from": "0xf697f84f044614e34cdfbd5df99b056af730716b",
        "to": "0xf5b2b62f014459b98991aae001e33af75f4fbd15",
        "gas": "0xa5e0",
        "value": "0x0",
        "input": "0x75829def000000000000000000000000db4cea5ce78ad8ee36118b667ed2335900615d8a",
        "nonce": "0x24",
        "chainId": "0x3e7"
      },
      "additionalContracts": [],
      "isFixedGasLimit": false
    },
    {
      "hash": "0x00d338c37111a279ce63e0ff27446ad8fb1f61459faa142b59e5bdea9142faff",
      "transactionType": "CALL",
      "contractName": null,
      "contractAddress": "0xbeca9c722eef9897b5aa87363f3bd9c94e16fe33",
      "function": "transferAdmin(address)",
      "arguments": [
        "0xdb4CEA5Ce78aD8ee36118B667ED2335900615D8a"
      ],
      "transaction": {
        "from": "0xf697f84f044614e34cdfbd5df99b056af730716b",
        "to": "0xbeca9c722eef9897b5aa87363f3bd9c94e16fe33",
        "gas": "0xa52e",
        "value": "0x0",
        "input": "0x75829def000000000000000000000000db4cea5ce78ad8ee36118b667ed2335900615d8a",
        "nonce": "0x25",
        "chainId": "0x3e7"
      },
      "additionalContracts": [],
      "isFixedGasLimit": false
    }
  ],
  "receipts": [
    {
      "status": "0x1",
      "cumulativeGasUsed": "0x1a4877",
      "logs": [],
      "logsBloom": "0x00000000000000000000000000000000000000000000000000000000000000000000000000000000000000000000000000000000000000000000000000000000000000000000000000000000000000000000000000000000000000000000000000000000000000000000000000000000000000000000000000000000000000000000000000000000000000000000000000000000000000000000000000000000000000000000000000000000000000000000000000000000000000000000000000000000000000000000000000000000000000000000000000000000000000000000000000000000000000000000000000000000000000000000000000000000",
      "type": "0x0",
      "transactionHash": "0x8516cb2b9d19a040f17db988ce7687454367c5f9bc37e2af1b7c5de97986eb8f",
      "transactionIndex": "0x3",
      "blockHash": "0x8f111f1113099d0fd45431ebeaf009f501048e822c794930165ea1d36b040058",
      "blockNumber": "0x18948b7",
      "gasUsed": "0xf95ca",
      "effectiveGasPrice": "0x9c80f42",
      "from": "0xf697f84f044614e34cdfbd5df99b056af730716b",
      "to": null,
      "contractAddress": "0xdb4cea5ce78ad8ee36118b667ed2335900615d8a"
    },
    {
      "status": "0x1",
      "cumulativeGasUsed": "0x1ac02c",
      "logs": [
        {
          "address": "0xca034d63c67add6ca127a575f0097c203dacae9d",
          "topics": [
            "0xb4d7bcb4d9a5d6ef6e827e3b1554e5a2578ad9ca843903d42b05d08bfa345894",
            "0x000000000000000000000000f697f84f044614e34cdfbd5df99b056af730716b",
            "0x000000000000000000000000db4cea5ce78ad8ee36118b667ed2335900615d8a"
          ],
          "data": "0x",
          "blockHash": "0x8f111f1113099d0fd45431ebeaf009f501048e822c794930165ea1d36b040058",
          "blockNumber": "0x18948b7",
          "blockTimestamp": "0x697a0a29",
          "transactionHash": "0x00d338c37111a279ce63e0ff27446ad8fb1f61459faa142b59e5bdea9142faff",
          "transactionIndex": "0x4",
          "logIndex": "0x15",
          "removed": false
        }
      ],
      "logsBloom": "0x00000000000000200000000000000000000000000000000010000040000000000000000000000000000000000010000000000000000000000000000000000000000000000000000000000000000000008000000080000000000000000000000000000000000000000000000000000000000000800000000000000000100000000000000000000000000000000000000000000000000000040000000000000000000000000000000000000000000000000000000000000000000000000000000000000000000000000080000000000000000200000000000000000000000001000000000000000000000000000000000000000000000000000000000000000000",
      "type": "0x0",
      "transactionHash": "0x00d338c37111a279ce63e0ff27446ad8fb1f61459faa142b59e5bdea9142faff",
      "transactionIndex": "0x4",
      "blockHash": "0x8f111f1113099d0fd45431ebeaf009f501048e822c794930165ea1d36b040058",
      "blockNumber": "0x18948b7",
      "gasUsed": "0x77b5",
      "effectiveGasPrice": "0x9c80f42",
      "from": "0xf697f84f044614e34cdfbd5df99b056af730716b",
      "to": "0xca034d63c67add6ca127a575f0097c203dacae9d",
      "contractAddress": null
    },
    {
      "status": "0x1",
      "cumulativeGasUsed": "0x1b3844",
      "logs": [
        {
          "address": "0xf5b2b62f014459b98991aae001e33af75f4fbd15",
          "topics": [
            "0xb4d7bcb4d9a5d6ef6e827e3b1554e5a2578ad9ca843903d42b05d08bfa345894",
            "0x000000000000000000000000f697f84f044614e34cdfbd5df99b056af730716b",
            "0x000000000000000000000000db4cea5ce78ad8ee36118b667ed2335900615d8a"
          ],
          "data": "0x",
          "blockHash": "0x8f111f1113099d0fd45431ebeaf009f501048e822c794930165ea1d36b040058",
          "blockNumber": "0x18948b7",
          "blockTimestamp": "0x697a0a29",
          "transactionHash": "0x6f5542d1460e3d7988c04f105658e34f6f1474361aace9dc21d6f9c28b01ec18",
          "transactionIndex": "0x5",
          "logIndex": "0x16",
          "removed": false
        }
      ],
      "logsBloom": "0x00000000000000200000000000000000000000000000000010000040000000000000000000000000000000000010000004000000000000000000000000000000000000000000000000000000000000000000000080000000000000000000000000000000000000000000000000000000000000800000000000000000100000000000000000000000000000000000000000000800000000040000000000000000000000000000000000000000000000000000000000000000000000000000000020000000000000000000000000000000000200000000000000000000000000000000000000000000000000000000000000000000000000000000000000000000",
      "type": "0x0",
      "transactionHash": "0x6f5542d1460e3d7988c04f105658e34f6f1474361aace9dc21d6f9c28b01ec18",
      "transactionIndex": "0x5",
      "blockHash": "0x8f111f1113099d0fd45431ebeaf009f501048e822c794930165ea1d36b040058",
      "blockNumber": "0x18948b7",
      "gasUsed": "0x7818",
      "effectiveGasPrice": "0x9c80f42",
      "from": "0xf697f84f044614e34cdfbd5df99b056af730716b",
      "to": "0xf5b2b62f014459b98991aae001e33af75f4fbd15",
      "contractAddress": null
    },
    {
      "status": "0x1",
      "cumulativeGasUsed": "0x1bafdb",
      "logs": [
        {
          "address": "0xbeca9c722eef9897b5aa87363f3bd9c94e16fe33",
          "topics": [
            "0xb4d7bcb4d9a5d6ef6e827e3b1554e5a2578ad9ca843903d42b05d08bfa345894",
            "0x000000000000000000000000f697f84f044614e34cdfbd5df99b056af730716b",
            "0x000000000000000000000000db4cea5ce78ad8ee36118b667ed2335900615d8a"
          ],
          "data": "0x",
          "blockHash": "0x8f111f1113099d0fd45431ebeaf009f501048e822c794930165ea1d36b040058",
          "blockNumber": "0x18948b7",
          "blockTimestamp": "0x697a0a29",
          "transactionHash": "0x627b6eed2c0e0aba7b9e26b82b27ee9c64874ca70d11819e62649d8e409926f8",
          "transactionIndex": "0x6",
          "logIndex": "0x17",
          "removed": false
        }
      ],
      "logsBloom": "0x00000000000000200000000000000000000000000000000010200040000000000000000000000000000000000010000000000000000000000000000000000000000000000000000000000000000000000000000080000000000000000000000000000000000000000000000000000004000000800000000000000000100000000000000000000000000000000000000000000000000000040000000000000000000000000000000000000000000000000000000000000000000000000800000000000000000000000000000000000000000200000000000000000000000000000000000000000000000000000000000000000000000000000000000000000000",
      "type": "0x0",
      "transactionHash": "0x627b6eed2c0e0aba7b9e26b82b27ee9c64874ca70d11819e62649d8e409926f8",
      "transactionIndex": "0x6",
      "blockHash": "0x8f111f1113099d0fd45431ebeaf009f501048e822c794930165ea1d36b040058",
      "blockNumber": "0x18948b7",
      "gasUsed": "0x7797",
      "effectiveGasPrice": "0x9c80f42",
      "from": "0xf697f84f044614e34cdfbd5df99b056af730716b",
      "to": "0xbeca9c722eef9897b5aa87363f3bd9c94e16fe33",
      "contractAddress": null
    }
  ],
  "libraries": [],
  "pending": [],
  "returns": {},
  "timestamp": 1769605674583,
  "chain": 999,
  "commit": "1a8d1e11"
}