{
  "transactions": [
    {
      "hash": "0x47f695ba753af5c51e572ac9fa849d197e0c2d62a019a580f15cb106699b41bc",
      "transactionType": "CALL",
      "contractName": null,
      "contractAddress": "0xfe369e19a4e235d36df2026f4251bd98af7a628e",
      "function": "propose(address,bytes,uint256)",
      "arguments": [
        "0xCa034D63c67ADd6CA127a575F0097C203DAcaE9d",
        "0x0e18b681",
        "0"
      ],
      "transaction": {
        "from": "0xf697f84f044614e34cdfbd5df99b056af730716b",
        "to": "0xfe369e19a4e235d36df2026f4251bd98af7a628e",
        "gas": "0x38648",
        "value": "0x0",
        "input": "0x31c2bd0b000000000000000000000000ca034d63c67add6ca127a575f0097c203dacae9d0000000000000000000000000000000000000000000000000000000000000060000000000000000000000000000000000000000000000000000000000000000000000000000000000000000000000000000000000000000000000000000000040e18b68100000000000000000000000000000000000000000000000000000000",
        "nonce": "0x1b",
        "chainId": "0x3e7"
      },
      "additionalContracts": [],
      "isFixedGasLimit": false
    },
    {
      "hash": "0xd420daf8fa3b76d44dbf966a3c6a520ac1fa84126f4b8a78843e8824998aaa41",
      "transactionType": "CALL",
      "contractName": null,
      "contractAddress": "0xfe369e19a4e235d36df2026f4251bd98af7a628e",
      "function": "propose(address,bytes,uint256)",
      "arguments": [
        "0xF5B2b62f014459B98991AaE001e33aF75f4fbD15",
        "0x0e18b681",
        "0"
      ],
      "transaction": {
        "from": "0xf697f84f044614e34cdfbd5df99b056af730716b",
        "to": "0xfe369e19a4e235d36df2026f4251bd98af7a628e",
        "gas": "0x359ab",
        "value": "0x0",
        "input": "0x31c2bd0b000000000000000000000000f5b2b62f014459b98991aae001e33af75f4fbd150000000000000000000000000000000000000000000000000000000000000060000000000000000000000000000000000000000000000000000000000000000000000000000000000000000000000000000000000000000000000000000000040e18b68100000000000000000000000000000000000000000000000000000000",
        "nonce": "0x1c",
        "chainId": "0x3e7"
      },
      "additionalContracts": [],
      "isFixedGasLimit": false
    },
    {
      "hash": "0x6cd7a3cb966c5a4f4184f3db45c6c88dcf445b4c4c61af5fa482632763c90f37",
      "transactionType": "CALL",
      "contractName": null,
      "contractAddress": "0xfe369e19a4e235d36df2026f4251bd98af7a628e",
      "function": "propose(address,bytes,uint256)",
      "arguments": [
        "0xbECa9c722EeF9897b5aa87363F3Bd9C94e16fE33",
        "0x0e18b681",
        "0"
      ],
      "transaction": {
        "from": "0xf697f84f044614e34cdfbd5df99b056af730716b",
        "to": "0xfe369e19a4e235d36df2026f4251bd98af7a628e",
        "gas": "0x359ab",
        "value": "0x0",
        "input": "0x31c2bd0b000000000000000000000000beca9c722eef9897b5aa87363f3bd9c94e16fe330000000000000000000000000000000000000000000000000000000000000060000000000000000000000000000000000000000000000000000000000000000000000000000000000000000000000000000000000000000000000000000000040e18b68100000000000000000000000000000000000000000000000000000000",
        "nonce": "0x1d",
        "chainId": "0x3e7"
      },
      "additionalContracts": [],
      "isFixedGasLimit": false
    },
    {
      "hash": null,
      "transactionType": "CALL",
      "contractName": null,
      "contractAddress": "0xfe369e19a4e235d36df2026f4251bd98af7a628e",
      "function": "approve(uint256)",
      "arguments": [
        "0"
      ],
      "transaction": {
        "from": "0xb27bf0b2d6e578976e9b053c3209f1dd949fed7e",
        "to": "0xfe369e19a4e235d36df2026f4251bd98af7a628e",
        "gas": "0x153e8",
        "value": "0x0",
        "input": "0xb759f9540000000000000000000000000000000000000000000000000000000000000000",
        "nonce": "0x0",
        "chainId": "0x3e7"
      },
      "additionalContracts": [],
      "isFixedGasLimit": false
    },
    {
      "hash": null,
      "transactionType": "CALL",
      "contractName": null,
      "contractAddress": "0xfe369e19a4e235d36df2026f4251bd98af7a628e",
      "function": "approve(uint256)",
      "arguments": [
        "1"
      ],
      "transaction": {
        "from": "0xb27bf0b2d6e578976e9b053c3209f1dd949fed7e",
        "to": "0xfe369e19a4e235d36df2026f4251bd98af7a628e",
        "gas": "0x14117",
        "value": "0x0",
        "input": "0xb759f9540000000000000000000000000000000000000000000000000000000000000001",
        "nonce": "0x1",
        "chainId": "0x3e7"
      },
      "additionalContracts": [],
      "isFixedGasLimit": false
    },
    {
      "hash": null,
      "transactionType": "CALL",
      "contractName": null,
      "contractAddress": "0xfe369e19a4e235d36df2026f4251bd98af7a628e",
      "function": "approve(uint256)",
      "arguments": [
        "2"
      ],
      "transaction": {
        "from": "0xb27bf0b2d6e578976e9b053c3209f1dd949fed7e",
        "to": "0xfe369e19a4e235d36df2026f4251bd98af7a628e",
        "gas": "0x14117",
        "value": "0x0",
        "input": "0xb759f9540000000000000000000000000000000000000000000000000000000000000002",
        "nonce": "0x2",
        "chainId": "0x3e7"
      },
      "additionalContracts": [],
      "isFixedGasLimit": false
    }
  ],
  "receipts": [
    {
      "status": "0x1",
      "cumulativeGasUsed": "0x28d3d",
      "logs": [
        {
          "address": "0xfe369e19a4e235d36df2026f4251bd98af7a628e",
          "topics": [
            "0x32f0cddfa75dbff518348353b98c65a912b8fa1349c8ffe9fb71cb83083f9ee6",
            "0x0000000000000000000000000000000000000000000000000000000000000000",
            "0x000000000000000000000000ca034d63c67add6ca127a575f0097c203dacae9d"
          ],
          "data": "0x000000000000000000000000000000000000000000000000000000000000004000000000000000000000000000000000000000000000000000000000697b5a4200000000000000000000000000000000000000000000000000000000000000040e18b68100000000000000000000000000000000000000000000000000000000",
          "blockHash": "0xbbea33b9f3848b6482fea380948d9acddaccae215e57e5fa371ace551a5b3ffe",
          "blockNumber": "0x189474a",
          "blockTimestamp": "0x697a08c2",
          "transactionHash": "0x47f695ba753af5c51e572ac9fa849d197e0c2d62a019a580f15cb106699b41bc",
          "transactionIndex": "0x0",
          "logIndex": "0x0",
          "removed": false
        },
        {
          "address": "0xfe369e19a4e235d36df2026f4251bd98af7a628e",
          "topics": [
            "0x049c28adfe50bcf1b76fd95273b6a24566b9f377e52fddc653c3355248dad07a",
            "0x0000000000000000000000000000000000000000000000000000000000000000",
            "0x000000000000000000000000f697f84f044614e34cdfbd5df99b056af730716b"
          ],
          "data": "0x",
          "blockHash": "0xbbea33b9f3848b6482fea380948d9acddaccae215e57e5fa371ace551a5b3ffe",
          "blockNumber": "0x189474a",
          "blockTimestamp": "0x697a08c2",
          "transactionHash": "0x47f695ba753af5c51e572ac9fa849d197e0c2d62a019a580f15cb106699b41bc",
          "transactionIndex": "0x0",
          "logIndex": "0x1",
          "removed": false
        }
      ],
      "logsBloom": "0x00000000000000000000000000000000000000000000000010000040000000000000200000000010000000000000000000000800000000000000000000000000000000000000000000000004000000000000000000000000000000000000000000000002020000000000000000000800002000000400000000000000100000200000000000100000000000000000000000000000000000000000000000000000000000000000000000000000000000000000000400000000000000000000000000000000000000000000000000000000000000000000000080000000000020000000000000000000000000010000000000000000000000000000000000000000",
      "type": "0x0",
      "transactionHash": "0x47f695ba753af5c51e572ac9fa849d197e0c2d62a019a580f15cb106699b41bc",
      "transactionIndex": "0x0",
      "blockHash": "0xbbea33b9f3848b6482fea380948d9acddaccae215e57e5fa371ace551a5b3ffe",
      "blockNumber": "0x189474a",
      "gasUsed": "0x28d3d",
      "effectiveGasPrice": "0x5f5e100",
      "from": "0xf697f84f044614e34cdfbd5df99b056af730716b",
      "to": "0xfe369e19a4e235d36df2026f4251bd98af7a628e",
      "contractAddress": null
    },
    {
      "status": "0x1",
      "cumulativeGasUsed": "0x121064",
      "logs": [
        {
          "address": "0xfe369e19a4e235d36df2026f4251bd98af7a628e",
          "topics": [
            "0x32f0cddfa75dbff518348353b98c65a912b8fa1349c8ffe9fb71cb83083f9ee6",
            "0x0000000000000000000000000000000000000000000000000000000000000001",
            "0x000000000000000000000000f5b2b62f014459b98991aae001e33af75f4fbd15"
          ],
          "data": "0x000000000000000000000000000000000000000000000000000000000000004000000000000000000000000000000000000000000000000000000000697b5a4500000000000000000000000000000000000000000000000000000000000000040e18b68100000000000000000000000000000000000000000000000000000000",
          "blockHash": "0x3025f73416ca58a4482e7845fe16d38460f14edc50e8eaca6c7fb8d69e14c1ab",
          "blockNumber": "0x189474d",
          "blockTimestamp": "0x697a08c5",
          "transactionHash": "0xd420daf8fa3b76d44dbf966a3c6a520ac1fa84126f4b8a78843e8824998aaa41",
          "transactionIndex": "0x9",
          "logIndex": "0x1b",
          "removed": false
        },
        {
          "address": "0xfe369e19a4e235d36df2026f4251bd98af7a628e",
          "topics": [
            "0x049c28adfe50bcf1b76fd95273b6a24566b9f377e52fddc653c3355248dad07a",
            "0x0000000000000000000000000000000000000000000000000000000000000001",
            "0x000000000000000000000000f697f84f044614e34cdfbd5df99b056af730716b"
          ],
          "data": "0x",
          "blockHash": "0x3025f73416ca58a4482e7845fe16d38460f14edc50e8eaca6c7fb8d69e14c1ab",
          "blockNumber": "0x189474d",
          "blockTimestamp": "0x697a08c5",
          "transactionHash": "0xd420daf8fa3b76d44dbf966a3c6a520ac1fa84126f4b8a78843e8824998aaa41",
          "transactionIndex": "0x9",
          "logIndex": "0x1c",
          "removed": false
        }
      ],
      "logsBloom": "0x00000000000000000000000000000000000000000000000010000040000000000000200000000000000000000000000000000800008000000000000000040000020000000000000000000004000000000000000000040000000000000000000000000002000000000000000000000000002000000400000000000000100000000000000000100000000000000000000000000000000000000000000000000000000000000000000000000000000000000000000000000000000000000000000000000000000001000000000000000000000000000000000080000000000040000000000000000000000000010000000000000000000000000000000000000000",
      "type": "0x0",
      "transactionHash": "0xd420daf8fa3b76d44dbf966a3c6a520ac1fa84126f4b8a78843e8824998aaa41",
      "transactionIndex": "0x9",
      "blockHash": "0x3025f73416ca58a4482e7845fe16d38460f14edc50e8eaca6c7fb8d69e14c1ab",
      "blockNumber": "0x189474d",
      "gasUsed": "0x24a71",
      "effectiveGasPrice": "0x5f5e100",
      "from": "0xf697f84f044614e34cdfbd5df99b056af730716b",
      "to": "0xfe369e19a4e235d36df2026f4251bd98af7a628e",
      "contractAddress": null
    },
    {
      "status": "0x1",
      "cumulativeGasUsed": "0x12f861",
      "logs": [
        {
          "address": "0xfe369e19a4e235d36df2026f4251bd98af7a628e",
          "topics": [
            "0x32f0cddfa75dbff518348353b98c65a912b8fa1349c8ffe9fb71cb83083f9ee6",
            "0x0000000000000000000000000000000000000000000000000000000000000002",
            "0x000000000000000000000000beca9c722eef9897b5aa87363f3bd9c94e16fe33"
          ],
          "data": "0x000000000000000000000000000000000000000000000000000000000000004000000000000000000000000000000000000000000000000000000000697b5a4800000000000000000000000000000000000000000000000000000000000000040e18b68100000000000000000000000000000000000000000000000000000000",
          "blockHash": "0x86058b4ca0f45c27208ca48861f557754375d61c4c61623564cd1d207671c336",
          "blockNumber": "0x1894750",
          "blockTimestamp": "0x697a08c8",
          "transactionHash": "0x6cd7a3cb966c5a4f4184f3db45c6c88dcf445b4c4c61af5fa482632763c90f37",
          "transactionIndex": "0x4",
          "logIndex": "0x1a",
          "removed": false
        },
        {
          "address": "0xfe369e19a4e235d36df2026f4251bd98af7a628e",
          "topics": [
            "0x049c28adfe50bcf1b76fd95273b6a24566b9f377e52fddc653c3355248dad07a",
            "0x0000000000000000000000000000000000000000000000000000000000000002",
            "0x000000000000000000000000f697f84f044614e34cdfbd5df99b056af730716b"
          ],
          "data": "0x",
          "blockHash": "0x86058b4ca0f45c27208ca48861f557754375d61c4c61623564cd1d207671c336",
          "blockNumber": "0x1894750",
          "blockTimestamp": "0x697a08c8",
          "transactionHash": "0x6cd7a3cb966c5a4f4184f3db45c6c88dcf445b4c4c61af5fa482632763c90f37",
          "transactionIndex": "0x4",
          "logIndex": "0x1b",
          "removed": false
        }
      ],
      "logsBloom": "0x04000000000000000000000000000000000000000000000010002040000000000000200000000000000000000000000000000800000000000000000000000000000000000000000000000004000000000000000000000000000000000000000000000002000000000000000000000000002000000400000000000000100000000000000000100000000000000000000000000000000000000000000000000000000000000000000000000100000000000000000000000000000000000000000000000000000000000000000000000000000000000000000080000000000000000000008000000000000000010000000000000000008000000010000000000000",
      "type": "0x0",
      "transactionHash": "0x6cd7a3cb966c5a4f4184f3db45c6c88dcf445b4c4c61af5fa482632763c90f37",
      "transactionIndex": "0x4",
      "blockHash": "0x86058b4ca0f45c27208ca48861f557754375d61c4c61623564cd1d207671c336",
      "blockNumber": "0x1894750",
      "gasUsed": "0x24a71",
      "effectiveGasPrice": "0x5f5e100",
      "from": "0xf697f84f044614e34cdfbd5df99b056af730716b",
      "to": "0xfe369e19a4e235d36df2026f4251bd98af7a628e",
      "contractAddress": null
    }
  ],
  "libraries": [],
  "pending": [],
  "returns": {},
  "timestamp": 1769605334140,
  "chain": 999,
  "commit": "1a8d1e11"
}