{
  "transactions": [
    {
      "hash": "0x064e93a401942c54d46aa1ce253605f145d375b7c6873b05d58cfbab6ec64bb7",
      "transactionType": "CALL",
      "contractName": null,
      "contractAddress": "0xdb4cea5ce78ad8ee36118b667ed2335900615d8a",
      "function": "propose(address,bytes,uint256)",
      "arguments": [
        "0xCa034D63c67ADd6CA127a575F0097C203DAcaE9d",
        "0x0e18b681",
        "0"
      ],
      "transaction": {
        "from": "0xf697f84f044614e34cdfbd5df99b056af730716b",
        "to": "0xdb4cea5ce78ad8ee36118b667ed2335900615d8a",
        "value": "0x0",
        "input": "0x31c2bd0b000000000000000000000000ca034d63c67add6ca127a575f0097c203dacae9d0000000000000000000000000000000000000000000000000000000000000060000000000000000000000000000000000000000000000000000000000000000000000000000000000000000000000000000000000000000000000000000000040e18b68100000000000000000000000000000000000000000000000000000000",
        "nonce": "0x26",
        "chainId": "0x3e7"
      },
      "additionalContracts": [],
      "isFixedGasLimit": false
    },
    {
      "hash": "0x07a964511c10265003d05b82ad6c12d72e84e75883d49962a55888661143c5ae",
      "transactionType": "CALL",
      "contractName": null,
      "contractAddress": "0xdb4cea5ce78ad8ee36118b667ed2335900615d8a",
      "function": "propose(address,bytes,uint256)",
      "arguments": [
        "0xF5B2b62f014459B98991AaE001e33aF75f4fbD15",
        "0x0e18b681",
        "0"
      ],
      "transaction": {
        "from": "0xf697f84f044614e34cdfbd5df99b056af730716b",
        "to": "0xdb4cea5ce78ad8ee36118b667ed2335900615d8a",
        "value": "0x0",
        "input": "0x31c2bd0b000000000000000000000000f5b2b62f014459b98991aae001e33af75f4fbd150000000000000000000000000000000000000000000000000000000000000060000000000000000000000000000000000000000000000000000000000000000000000000000000000000000000000000000000000000000000000000000000040e18b68100000000000000000000000000000000000000000000000000000000",
        "nonce": "0x27",
        "chainId": "0x3e7"
      },
      "additionalContracts": [],
      "isFixedGasLimit": false
    },
    {
      "hash": "0x00fbdab26021aef7dcca46dfc6ee642c8ae3b700a81f32d96405b634e041474c",
      "transactionType": "CALL",
      "contractName": null,
      "contractAddress": "0xdb4cea5ce78ad8ee36118b667ed2335900615d8a",
      "function": "propose(address,bytes,uint256)",
      "arguments": [
        "0xbECa9c722EeF9897b5aa87363F3Bd9C94e16fE33",
        "0x0e18b681",
        "0"
      ],
      "transaction": {
        "from": "0xf697f84f044614e34cdfbd5df99b056af730716b",
        "to": "0xdb4cea5ce78ad8ee36118b667ed2335900615d8a",
        "value": "0x0",
        "input": "0x31c2bd0b000000000000000000000000beca9c722eef9897b5aa87363f3bd9c94e16fe330000000000000000000000000000000000000000000000000000000000000060000000000000000000000000000000000000000000000000000000000000000000000000000000000000000000000000000000000000000000000000000000040e18b68100000000000000000000000000000000000000000000000000000000",
        "nonce": "0x28",
        "chainId": "0x3e7"
      },
      "additionalContracts": [],
      "isFixedGasLimit": false
    },
    {
      "hash": "0x5be5f44b0d0d32aa2bfc4df17a7612d84a149df970299e7a75efe4134baa40c8",
      "transactionType": "CALL",
      "contractName": null,
      "contractAddress": "0xdb4cea5ce78ad8ee36118b667ed2335900615d8a",
      "function": "approve(uint256)",
      "arguments": [
        "0"
      ],
      "transaction": {
        "from": "0xb27bf0b2d6e578976e9b053c3209f1dd949fed7e",
        "to": "0xdb4cea5ce78ad8ee36118b667ed2335900615d8a",
        "value": "0x0",
        "input": "0xb759f9540000000000000000000000000000000000000000000000000000000000000000",
        "nonce": "0x3",
        "chainId": "0x3e7"
      },
      "additionalContracts": [],
      "isFixedGasLimit": false
    },
    {
      "hash": "0xd170a0deca9c78280bd9ac047ea3acc2033f6547e82fdb5940f7174f9c1efe66",
      "transactionType": "CALL",
      "contractName": null,
      "contractAddress": "0xdb4cea5ce78ad8ee36118b667ed2335900615d8a",
      "function": "approve(uint256)",
      "arguments": [
        "1"
      ],
      "transaction": {
        "from": "0xb27bf0b2d6e578976e9b053c3209f1dd949fed7e",
        "to": "0xdb4cea5ce78ad8ee36118b667ed2335900615d8a",
        "value": "0x0",
        "input": "0xb759f9540000000000000000000000000000000000000000000000000000000000000001",
        "nonce": "0x4",
        "chainId": "0x3e7"
      },
      "additionalContracts": [],
      "isFixedGasLimit": false
    },
    {
      "hash": "0x8c57f86edb542325c33a773cb5245ad25e3c1cb9b43fbd862a623d08a6af8fef",
      "transactionType": "CALL",
      "contractName": null,
      "contractAddress": "0xdb4cea5ce78ad8ee36118b667ed2335900615d8a",
      "function": "approve(uint256)",
      "arguments": [
        "2"
      ],
      "transaction": {
        "from": "0xb27bf0b2d6e578976e9b053c3209f1dd949fed7e",
        "to": "0xdb4cea5ce78ad8ee36118b667ed2335900615d8a",
        "value": "0x0",
        "input": "0xb759f9540000000000000000000000000000000000000000000000000000000000000002",
        "nonce": "0x5",
        "chainId": "0x3e7"
      },
      "additionalContracts": [],
      "isFixedGasLimit": false
    }
  ],
  "receipts": [
    {
      "status": "0x1",
      "cumulativeGasUsed": "0xaa74d",
      "logs": [
        {
          "address": "0xdb4cea5ce78ad8ee36118b667ed2335900615d8a",
          "topics": [
            "0x32f0cddfa75dbff518348353b98c65a912b8fa1349c8ffe9fb71cb83083f9ee6",
            "0x0000000000000000000000000000000000000000000000000000000000000000",
            "0x000000000000000000000000ca034d63c67add6ca127a575f0097c203dacae9d"
          ],
          "data": "0x000000000000000000000000000000000000000000000000000000000000004000000000000000000000000000000000000000000000000000000000697a0a7d00000000000000000000000000000000000000000000000000000000000000040e18b68100000000000000000000000000000000000000000000000000000000",
          "blockHash": "0x0d7a82e8095ed715739bb7327e628f503e03c58e49db15573df83b980df0188c",
          "blockNumber": "0x189490d",
          "blockTimestamp": "0x697a0a7d",
          "transactionHash": "0x064e93a401942c54d46aa1ce253605f145d375b7c6873b05d58cfbab6ec64bb7",
          "transactionIndex": "0x1",
          "logIndex": "0x10",
          "removed": false
        },
        {
          "address": "0xdb4cea5ce78ad8ee36118b667ed2335900615d8a",
          "topics": [
            "0x049c28adfe50bcf1b76fd95273b6a24566b9f377e52fddc653c3355248dad07a",
            "0x0000000000000000000000000000000000000000000000000000000000000000",
            "0x000000000000000000000000f697f84f044614e34cdfbd5df99b056af730716b"
          ],
          "data": "0x",
          "blockHash": "0x0d7a82e8095ed715739bb7327e628f503e03c58e49db15573df83b980df0188c",
          "blockNumber": "0x189490d",
          "blockTimestamp": "0x697a0a7d",
          "transactionHash": "0x064e93a401942c54d46aa1ce253605f145d375b7c6873b05d58cfbab6ec64bb7",
          "transactionIndex": "0x1",
          "logIndex": "0x11",
          "removed": false
        }
      ],
      "logsBloom": "0x00000000000000000000000000000000000000000000000010000040000000000000200000000010000000000000000000000800000000000000000000000000000000000000000002000004000000000002000000000000000000000000000000000000020000000000000000000800002000000000000000000000100000200000000000000000000000000000000000000000000000000000000000000000000000000000000000000000000000000000000400000000000000000000000000000000000000000000000000000000000000000000000080000000000020000000000000000000000000010000000000000020000000000000000000000000",
      "type": "0x0",
      "transactionHash": "0x064e93a401942c54d46aa1ce253605f145d375b7c6873b05d58cfbab6ec64bb7",
      "transactionIndex": "0x1",
      "blockHash": "0x0d7a82e8095ed715739bb7327e628f503e03c58e49db15573df83b980df0188c",
      "blockNumber": "0x189490d",
      "gasUsed": "0x28d14",
      "effectiveGasPrice": "0x5f5e100",
      "from": "0xf697f84f044614e34cdfbd5df99b056af730716b",
      "to": "0xdb4cea5ce78ad8ee36118b667ed2335900615d8a",
      "contractAddress": null
    },
    {
      "status": "0x1",
      "cumulativeGasUsed": "0x1a6d97",
      "logs": [
        {
          "address": "0xdb4cea5ce78ad8ee36118b667ed2335900615d8a",
          "topics": [
            "0x32f0cddfa75dbff518348353b98c65a912b8fa1349c8ffe9fb71cb83083f9ee6",
            "0x0000000000000000000000000000000000000000000000000000000000000001",
            "0x000000000000000000000000f5b2b62f014459b98991aae001e33af75f4fbd15"
          ],
          "data": "0x000000000000000000000000000000000000000000000000000000000000004000000000000000000000000000000000000000000000000000000000697a0a7f00000000000000000000000000000000000000000000000000000000000000040e18b68100000000000000000000000000000000000000000000000000000000",
          "blockHash": "0xc10628eaae56fc5b59754eb0cb50edd1b081b15a87903cdf93aee2dd2cdec390",
          "blockNumber": "0x189490f",
          "blockTimestamp": "0x697a0a7f",
          "transactionHash": "0x07a964511c10265003d05b82ad6c12d72e84e75883d49962a55888661143c5ae",
          "transactionIndex": "0x2",
          "logIndex": "0x31",
          "removed": false
        },
        {
          "address": "0xdb4cea5ce78ad8ee36118b667ed2335900615d8a",
          "topics": [
            "0x049c28adfe50bcf1b76fd95273b6a24566b9f377e52fddc653c3355248dad07a",
            "0x0000000000000000000000000000000000000000000000000000000000000001",
            "0x000000000000000000000000f697f84f044614e34cdfbd5df99b056af730716b"
          ],
          "data": "0x",
          "blockHash": "0xc10628eaae56fc5b59754eb0cb50edd1b081b15a87903cdf93aee2dd2cdec390",
          "blockNumber": "0x189490f",
          "blockTimestamp": "0x697a0a7f",
          "transactionHash": "0x07a964511c10265003d05b82ad6c12d72e84e75883d49962a55888661143c5ae",
          "transactionIndex": "0x2",
          "logIndex": "0x32",
          "removed": false
        }
      ],
      "logsBloom": "0x00000000000000000000000000000000000000000000000010000040000000000000200000000000000000000000000000000800008000000000000000040000020000000000000002000004000000000002000000040000000000000000000000000000000000000000000000000000002000000000000000000000100000000000000000000000000000000000000000000000000000000000000000000000000000000000000000000000000000000000000000000000000000000000000000000000000001000000000000000000000000000000000080000000000040000000000000000000000000010000000000000020000000000000000000000000",
      "type": "0x0",
      "transactionHash": "0x07a964511c10265003d05b82ad6c12d72e84e75883d49962a55888661143c5ae",
      "transactionIndex": "0x2",
      "blockHash": "0xc10628eaae56fc5b59754eb0cb50edd1b081b15a87903cdf93aee2dd2cdec390",
      "blockNumber": "0x189490f",
      "gasUsed": "0x24a48",
      "effectiveGasPrice": "0x5f5e100",
      "from": "0xf697f84f044614e34cdfbd5df99b056af730716b",
      "to": "0xdb4cea5ce78ad8ee36118b667ed2335900615d8a",
      "contractAddress": null
    },
    {
      "status": "0x1",
      "cumulativeGasUsed": "0x24a48",
      "logs": [
        {
          "address": "0xdb4cea5ce78ad8ee36118b667ed2335900615d8a",
          "topics": [
            "0x32f0cddfa75dbff518348353b98c65a912b8fa1349c8ffe9fb71cb83083f9ee6",
            "0x0000000000000000000000000000000000000000000000000000000000000002",
            "0x000000000000000000000000beca9c722eef9897b5aa87363f3bd9c94e16fe33"
          ],
          "data": "0x000000000000000000000000000000000000000000000000000000000000004000000000000000000000000000000000000000000000000000000000697a0a8200000000000000000000000000000000000000000000000000000000000000040e18b68100000000000000000000000000000000000000000000000000000000",
          "blockHash": "0xf39bab64b0a1a885e22d79bf99d3ed38295c0ec63b4f7a0d29563b2f51e1ada9",
          "blockNumber": "0x1894912",
          "blockTimestamp": "0x697a0a82",
          "transactionHash": "0x00fbdab26021aef7dcca46dfc6ee642c8ae3b700a81f32d96405b634e041474c",
          "transactionIndex": "0x0",
          "logIndex": "0x0",
          "removed": false
        },
        {
          "address": "0xdb4cea5ce78ad8ee36118b667ed2335900615d8a",
          "topics": [
            "0x049c28adfe50bcf1b76fd95273b6a24566b9f377e52fddc653c3355248dad07a",
            "0x0000000000000000000000000000000000000000000000000000000000000002",
            "0x000000000000000000000000f697f84f044614e34cdfbd5df99b056af730716b"
          ],
          "data": "0x",
          "blockHash": "0xf39bab64b0a1a885e22d79bf99d3ed38295c0ec63b4f7a0d29563b2f51e1ada9",
          "blockNumber": "0x1894912",
          "blockTimestamp": "0x697a0a82",
          "transactionHash": "0x00fbdab26021aef7dcca46dfc6ee642c8ae3b700a81f32d96405b634e041474c",
          "transactionIndex": "0x0",
          "logIndex": "0x1",
          "removed": false
        }
      ],
      "logsBloom": "0x04000000000000000000000000000000000000000000000010002040000000000000200000000000000000000000000000000800000000000000000000000000000000000000000002000004000000000002000000000000000000000000000000000000000000000000000000000000002000000000000000000000100000000000000000000000000000000000000000000000000000000000000000000000000000000000000000000100000000000000000000000000000000000000000000000000000000000000000000000000000000000000000080000000000000000000008000000000000000010000000000000020008000000010000000000000",
      "type": "0x0",
      "transactionHash": "0x00fbdab26021aef7dcca46dfc6ee642c8ae3b700a81f32d96405b634e041474c",
      "transactionIndex": "0x0",
      "blockHash": "0xf39bab64b0a1a885e22d79bf99d3ed38295c0ec63b4f7a0d29563b2f51e1ada9",
      "blockNumber": "0x1894912",
      "gasUsed": "0x24a48",
      "effectiveGasPrice": "0x5f5e100",
      "from": "0xf697f84f044614e34cdfbd5df99b056af730716b",
      "to": "0xdb4cea5ce78ad8ee36118b667ed2335900615d8a",
      "contractAddress": null
    },
    {
      "status": "0x1",
      "cumulativeGasUsed": "0x19eb2",
      "logs": [
        {
          "address": "0xdb4cea5ce78ad8ee36118b667ed2335900615d8a",
          "topics": [
            "0x049c28adfe50bcf1b76fd95273b6a24566b9f377e52fddc653c3355248dad07a",
            "0x0000000000000000000000000000000000000000000000000000000000000000",
            "0x000000000000000000000000b27bf0b2d6e578976e9b053c3209f1dd949fed7e"
          ],
          "data": "0x",
          "blockHash": "0x99617616bf16fc6a17692fbf360f4b1bcaf38e7ee3b402928c626d9a688971e5",
          "blockNumber": "0x1894914",
          "blockTimestamp": "0x697a0a84",
          "transactionHash": "0x5be5f44b0d0d32aa2bfc4df17a7612d84a149df970299e7a75efe4134baa40c8",
          "transactionIndex": "0x1",
          "logIndex": "0x1",
          "removed": false
        }
      ],
      "logsBloom": "0x00000000000000000000000000000000000000000008000000000000000000000000000000000000000000800000000000000800000000000000000000000000000000000000000002000000000000000002000000000000000000000000000000000000020000000000000000000800002000000000000000000000000000000000000000000000000000000000000000000000000000000000000000000000000000000000000000000000000000000000000000000000000000000000000000000000000000000000000000000000000400000000000080000000000020000000000000000000000000000000000000000020000000000000000000000000",
      "type": "0x0",
      "transactionHash": "0x5be5f44b0d0d32aa2bfc4df17a7612d84a149df970299e7a75efe4134baa40c8",
      "transactionIndex": "0x1",
      "blockHash": "0x99617616bf16fc6a17692fbf360f4b1bcaf38e7ee3b402928c626d9a688971e5",
      "blockNumber": "0x1894914",
      "gasUsed": "0xe86b",
      "effectiveGasPrice": "0x5f5e100",
      "from": "0xb27bf0b2d6e578976e9b053c3209f1dd949fed7e",
      "to": "0xdb4cea5ce78ad8ee36118b667ed2335900615d8a",
      "contractAddress": null
    },
    {
      "status": "0x1",
      "cumulativeGasUsed": "0xe877",
      "logs": [
        {
          "address": "0xdb4cea5ce78ad8ee36118b667ed2335900615d8a",
          "topics": [
            "0x049c28adfe50bcf1b76fd95273b6a24566b9f377e52fddc653c3355248dad07a",
            "0x0000000000000000000000000000000000000000000000000000000000000001",
            "0x000000000000000000000000b27bf0b2d6e578976e9b053c3209f1dd949fed7e"
          ],
          "data": "0x",
          "blockHash": "0xafbe9281f445e55f12e3c326793571a0fa3b339afecc7f5634084b27caecc5f1",
          "blockNumber": "0x1894916",
          "blockTimestamp": "0x697a0a86",
          "transactionHash": "0xd170a0deca9c78280bd9ac047ea3acc2033f6547e82fdb5940f7174f9c1efe66",
          "transactionIndex": "0x0",
          "logIndex": "0x0",
          "removed": false
        }
      ],
      "logsBloom": "0x00000000000000000000000000000000000000000008000000000000000000000000000000000000000000800000000000000800000000000000000000040000000000000000000002000000000000000002000000040000000000000000000000000000000000000000000000000000002000000000000000000000000000000000000000000000000000000000000000000000000000000000000000000000000000000000000000000000000000000000000000000000000000000000000000000000000000000000000000000000000400000000000080000000000040000000000000000000000000000000000000000020000000000000000000000000",
      "type": "0x0",
      "transactionHash": "0xd170a0deca9c78280bd9ac047ea3acc2033f6547e82fdb5940f7174f9c1efe66",
      "transactionIndex": "0x0",
      "blockHash": "0xafbe9281f445e55f12e3c326793571a0fa3b339afecc7f5634084b27caecc5f1",
      "blockNumber": "0x1894916",
      "gasUsed": "0xe877",
      "effectiveGasPrice": "0x5f5e100",
      "from": "0xb27bf0b2d6e578976e9b053c3209f1dd949fed7e",
      "to": "0xdb4cea5ce78ad8ee36118b667ed2335900615d8a",
      "contractAddress": null
    },
    {
      "status": "0x1",
      "cumulativeGasUsed": "0xe877",
      "logs": [
        {
          "address": "0xdb4cea5ce78ad8ee36118b667ed2335900615d8a",
          "topics": [
            "0x049c28adfe50bcf1b76fd95273b6a24566b9f377e52fddc653c3355248dad07a",
            "0x0000000000000000000000000000000000000000000000000000000000000002",
            "0x000000000000000000000000b27bf0b2d6e578976e9b053c3209f1dd949fed7e"
          ],
          "data": "0x",
          "blockHash": "0x9e4b7178d788782d0f6e65e175bce88414ee7562b40ec86d1161d362e1e51a85",
          "blockNumber": "0x1894919",
          "blockTimestamp": "0x697a0a89",
          "transactionHash": "0x8c57f86edb542325c33a773cb5245ad25e3c1cb9b43fbd862a623d08a6af8fef",
          "transactionIndex": "0x0",
          "logIndex": "0x0",
          "removed": false
        }
      ],
      "logsBloom": "0x04000000000000000000000000000000000000000008000000000000000000000000000000000000000000800000000000000800000000000000000000000000000000000000000002000000000000000002000000000000000000000000000000000000000000000000000000000000002000000000000000000000000000000000000000000000000000000000000000000000000000000000000000000000000000000000000000000100000000000000000000000000000000000000000000000000000000000000000000000000000400000000000080000000000000000000000000000000000000000000000000000020008000000000000000000000",
      "type": "0x0",
      "transactionHash": "0x8c57f86edb542325c33a773cb5245ad25e3c1cb9b43fbd862a623d08a6af8fef",
      "transactionIndex": "0x0",
      "blockHash": "0x9e4b7178d788782d0f6e65e175bce88414ee7562b40ec86d1161d362e1e51a85",
      "blockNumber": "0x1894919",
      "gasUsed": "0xe877",
      "effectiveGasPrice": "0x5f5e100",
      "from": "0xb27bf0b2d6e578976e9b053c3209f1dd949fed7e",
      "to": "0xdb4cea5ce78ad8ee36118b667ed2335900615d8a",
      "contractAddress": null
    }
  ],
  "libraries": [],
  "pending": [],
  "returns": {},
  "timestamp": 1769605769345,
  "chain": 999,
  "commit": "1a8d1e11"
}