{
  "transactions": [
    {
      "hash": "0x9478bde0aefef4c786ff641231a999d24cd0d22793406b9c85e78a6d0e847f05",
      "transactionType": "CALL",
      "contractName": null,
      "contractAddress": "0xfe369e19a4e235d36df2026f4251bd98af7a628e",
      "function": "propose(address,bytes,uint256)",
      "arguments": [
        "0xCa034D63c67ADd6CA127a575F0097C203DAcaE9d",
        "0x0e18b681",
        "0"
      ],
      "transaction": {
        "from": "0xf697f84f044614e34cdfbd5df99b056af730716b",
        "to": "0xfe369e19a4e235d36df2026f4251bd98af7a628e",
        "gas": "0x359ab",
        "value": "0x0",
        "input": "0x31c2bd0b000000000000000000000000ca034d63c67add6ca127a575f0097c203dacae9d0000000000000000000000000000000000000000000000000000000000000060000000000000000000000000000000000000000000000000000000000000000000000000000000000000000000000000000000000000000000000000000000040e18b68100000000000000000000000000000000000000000000000000000000",
        "nonce": "0x1f",
        "chainId": "0x3e7"
      },
      "additionalContracts": [],
      "isFixedGasLimit": false
    },
    {
      "hash": "0x79664ec09faa7e02e6e8deca74c8bbf0eba0145f3fd0106a3d8cffc16d39497e",
      "transactionType": "CALL",
      "contractName": null,
      "contractAddress": "0xfe369e19a4e235d36df2026f4251bd98af7a628e",
      "function": "propose(address,bytes,uint256)",
      "arguments": [
        "0xF5B2b62f014459B98991AaE001e33aF75f4fbD15",
        "0x0e18b681",
        "0"
      ],
      "transaction": {
        "from": "0xf697f84f044614e34cdfbd5df99b056af730716b",
        "to": "0xfe369e19a4e235d36df2026f4251bd98af7a628e",
        "gas": "0x359ab",
        "value": "0x0",
        "input": "0x31c2bd0b000000000000000000000000f5b2b62f014459b98991aae001e33af75f4fbd150000000000000000000000000000000000000000000000000000000000000060000000000000000000000000000000000000000000000000000000000000000000000000000000000000000000000000000000000000000000000000000000040e18b68100000000000000000000000000000000000000000000000000000000",
        "nonce": "0x20",
        "chainId": "0x3e7"
      },
      "additionalContracts": [],
      "isFixedGasLimit": false
    },
    {
      "hash": "0x614570da05b29d5dc4a1a8051167b124f1be5f79fdf7fd6e3ef41b97a595d7df",
      "transactionType": "CALL",
      "contractName": null,
      "contractAddress": "0xfe369e19a4e235d36df2026f4251bd98af7a628e",
      "function": "propose(address,bytes,uint256)",
      "arguments": [
        "0xbECa9c722EeF9897b5aa87363F3Bd9C94e16fE33",
        "0x0e18b681",
        "0"
      ],
      "transaction": {
        "from": "0xf697f84f044614e34cdfbd5df99b056af730716b",
        "to": "0xfe369e19a4e235d36df2026f4251bd98af7a628e",
        "gas": "0x359ab",
        "value": "0x0",
        "input": "0x31c2bd0b000000000000000000000000beca9c722eef9897b5aa87363f3bd9c94e16fe330000000000000000000000000000000000000000000000000000000000000060000000000000000000000000000000000000000000000000000000000000000000000000000000000000000000000000000000000000000000000000000000040e18b68100000000000000000000000000000000000000000000000000000000",
        "nonce": "0x21",
        "chainId": "0x3e7"
      },
      "additionalContracts": [],
      "isFixedGasLimit": false
    },
    {
      "hash": "0xca00bc03fe44309c6a24950534e46a82c5984f32164fced17a2fa2cf8f5eaaab",
      "transactionType": "CALL",
      "contractName": null,
      "contractAddress": "0xfe369e19a4e235d36df2026f4251bd98af7a628e",
      "function": "approve(uint256)",
      "arguments": [
        "3"
      ],
      "transaction": {
        "from": "0xb27bf0b2d6e578976e9b053c3209f1dd949fed7e",
        "to": "0xfe369e19a4e235d36df2026f4251bd98af7a628e",
        "gas": "0x14117",
        "value": "0x0",
        "input": "0xb759f9540000000000000000000000000000000000000000000000000000000000000003",
        "nonce": "0x0",
        "chainId": "0x3e7"
      },
      "additionalContracts": [],
      "isFixedGasLimit": false
    },
    {
      "hash": "0x1aea39b7bcb5037d3aaebef6f5d115879469e10c9c2707965429cb30c092ad71",
      "transactionType": "CALL",
      "contractName": null,
      "contractAddress": "0xfe369e19a4e235d36df2026f4251bd98af7a628e",
      "function": "approve(uint256)",
      "arguments": [
        "4"
      ],
      "transaction": {
        "from": "0xb27bf0b2d6e578976e9b053c3209f1dd949fed7e",
        "to": "0xfe369e19a4e235d36df2026f4251bd98af7a628e",
        "gas": "0x14117",
        "value": "0x0",
        "input": "0xb759f9540000000000000000000000000000000000000000000000000000000000000004",
        "nonce": "0x1",
        "chainId": "0x3e7"
      },
      "additionalContracts": [],
      "isFixedGasLimit": false
    },
    {
      "hash": "0x3130ef278543d7ee697fd5da5beb42d4855a6806afad0c1a2df3a7fa096d6e4c",
      "transactionType": "CALL",
      "contractName": null,
      "contractAddress": "0xfe369e19a4e235d36df2026f4251bd98af7a628e",
      "function": "approve(uint256)",
      "arguments": [
        "5"
      ],
      "transaction": {
        "from": "0xb27bf0b2d6e578976e9b053c3209f1dd949fed7e",
        "to": "0xfe369e19a4e235d36df2026f4251bd98af7a628e",
        "gas": "0x14117",
        "value": "0x0",
        "input": "0xb759f9540000000000000000000000000000000000000000000000000000000000000005",
        "nonce": "0x2",
        "chainId": "0x3e7"
      },
      "additionalContracts": [],
      "isFixedGasLimit": false
    }
  ],
  "receipts": [
    {
      "status": "0x1",
      "cumulativeGasUsed": "0x24a71",
      "logs": [
        {
          "address": "0xfe369e19a4e235d36df2026f4251bd98af7a628e",
          "topics": [
            "0x32f0cddfa75dbff518348353b98c65a912b8fa1349c8ffe9fb71cb83083f9ee6",
            "0x0000000000000000000000000000000000000000000000000000000000000003",
            "0x000000000000000000000000ca034d63c67add6ca127a575f0097c203dacae9d"
          ],
          "data": "0x000000000000000000000000000000000000000000000000000000000000004000000000000000000000000000000000000000000000000000000000697b5a8900000000000000000000000000000000000000000000000000000000000000040e18b68100000000000000000000000000000000000000000000000000000000",
          "blockHash": "0xfbd8d95eed8cc05011ad2101f06759607cbcaf88d6e3090fab32f7879c7d06bc",
          "blockNumber": "0x1894793",
          "blockTimestamp": "0x697a0909",
          "transactionHash": "0x9478bde0aefef4c786ff641231a999d24cd0d22793406b9c85e78a6d0e847f05",
          "transactionIndex": "0x0",
          "logIndex": "0x0",
          "removed": false
        },
        {
          "address": "0xfe369e19a4e235d36df2026f4251bd98af7a628e",
          "topics": [
            "0x049c28adfe50bcf1b76fd95273b6a24566b9f377e52fddc653c3355248dad07a",
            "0x0000000000000000000000000000000000000000000000000000000000000003",
            "0x000000000000000000000000f697f84f044614e34cdfbd5df99b056af730716b"
          ],
          "data": "0x",
          "blockHash": "0xfbd8d95eed8cc05011ad2101f06759607cbcaf88d6e3090fab32f7879c7d06bc",
          "blockNumber": "0x1894793",
          "blockTimestamp": "0x697a0909",
          "transactionHash": "0x9478bde0aefef4c786ff641231a999d24cd0d22793406b9c85e78a6d0e847f05",
          "transactionIndex": "0x0",
          "logIndex": "0x1",
          "removed": false
        }
      ],
      "logsBloom": "0x00000000000000000000000000000000000000000000000010000040000000000000200000000010000000000000000000000800020000000000000000000000000000000000000000000004000000000000000000000000000000000000000000000002000000000000000000000000002000000400000000000000100000200000000000100000000000000000000000000000000000000000000000000000000000000000000000000000000000000000000400800000000000000000400000000000000000000000000000000000000000000000000080000000000000000000000000000000000000010000000000000000000000000000000000000000",
      "type": "0x0",
      "transactionHash": "0x9478bde0aefef4c786ff641231a999d24cd0d22793406b9c85e78a6d0e847f05",
      "transactionIndex": "0x0",
      "blockHash": "0xfbd8d95eed8cc05011ad2101f06759607cbcaf88d6e3090fab32f7879c7d06bc",
      "blockNumber": "0x1894793",
      "gasUsed": "0x24a71",
      "effectiveGasPrice": "0x5f5e100",
      "from": "0xf697f84f044614e34cdfbd5df99b056af730716b",
      "to": "0xfe369e19a4e235d36df2026f4251bd98af7a628e",
      "contractAddress": null
    },
    {
      "status": "0x1",
      "cumulativeGasUsed": "0x2bb20",
      "logs": [
        {
          "address": "0xfe369e19a4e235d36df2026f4251bd98af7a628e",
          "topics": [
            "0x32f0cddfa75dbff518348353b98c65a912b8fa1349c8ffe9fb71cb83083f9ee6",
            "0x0000000000000000000000000000000000000000000000000000000000000004",
            "0x000000000000000000000000f5b2b62f014459b98991aae001e33af75f4fbd15"
          ],
          "data": "0x000000000000000000000000000000000000000000000000000000000000004000000000000000000000000000000000000000000000000000000000697b5a8c00000000000000000000000000000000000000000000000000000000000000040e18b68100000000000000000000000000000000000000000000000000000000",
          "blockHash": "0x284abaca80dde5ef16559b2b62025b59afeaa35a23ffc10547649ef33ed7c934",
          "blockNumber": "0x1894796",
          "blockTimestamp": "0x697a090c",
          "transactionHash": "0x79664ec09faa7e02e6e8deca74c8bbf0eba0145f3fd0106a3d8cffc16d39497e",
          "transactionIndex": "0x1",
          "logIndex": "0x1",
          "removed": false
        },
        {
          "address": "0xfe369e19a4e235d36df2026f4251bd98af7a628e",
          "topics": [
            "0x049c28adfe50bcf1b76fd95273b6a24566b9f377e52fddc653c3355248dad07a",
            "0x0000000000000000000000000000000000000000000000000000000000000004",
            "0x000000000000000000000000f697f84f044614e34cdfbd5df99b056af730716b"
          ],
          "data": "0x",
          "blockHash": "0x284abaca80dde5ef16559b2b62025b59afeaa35a23ffc10547649ef33ed7c934",
          "blockNumber": "0x1894796",
          "blockTimestamp": "0x697a090c",
          "transactionHash": "0x79664ec09faa7e02e6e8deca74c8bbf0eba0145f3fd0106a3d8cffc16d39497e",
          "transactionIndex": "0x1",
          "logIndex": "0x2",
          "removed": false
        }
      ],
      "logsBloom": "0x00000000000000000000000000000000000000000000000010000040000000000000200000000000000000000000000000000800008000000000000000000000020000000000000000000004000000000000000000000000000000000000000008000002000000000000000000000000002000000400000000000000100000000000000000100000000000000000000000000000000000000000000000000000000000000000000000000000000000000000000000000000002000000000000000000000000001000000000000000000000000008000000080000000000000000000000000000000000000010000000000000000000000000000000000000000",
      "type": "0x0",
      "transactionHash": "0x79664ec09faa7e02e6e8deca74c8bbf0eba0145f3fd0106a3d8cffc16d39497e",
      "transactionIndex": "0x1",
      "blockHash": "0x284abaca80dde5ef16559b2b62025b59afeaa35a23ffc10547649ef33ed7c934",
      "blockNumber": "0x1894796",
      "gasUsed": "0x24a71",
      "effectiveGasPrice": "0x5f5e100",
      "from": "0xf697f84f044614e34cdfbd5df99b056af730716b",
      "to": "0xfe369e19a4e235d36df2026f4251bd98af7a628e",
      "contractAddress": null
    },
    {
      "status": "0x1",
      "cumulativeGasUsed": "0x24a71",
      "logs": [
        {
          "address": "0xfe369e19a4e235d36df2026f4251bd98af7a628e",
          "topics": [
            "0x32f0cddfa75dbff518348353b98c65a912b8fa1349c8ffe9fb71cb83083f9ee6",
            "0x0000000000000000000000000000000000000000000000000000000000000005",
            "0x000000000000000000000000beca9c722eef9897b5aa87363f3bd9c94e16fe33"
          ],
          "data": "0x000000000000000000000000000000000000000000000000000000000000004000000000000000000000000000000000000000000000000000000000697b5a8f00000000000000000000000000000000000000000000000000000000000000040e18b68100000000000000000000000000000000000000000000000000000000",
          "blockHash": "0x31b851f7a0359951a9bc4c5280a5eb283af64a7f426b856c0a1f50f2dce49ce3",
          "blockNumber": "0x1894799",
          "blockTimestamp": "0x697a090f",
          "transactionHash": "0x614570da05b29d5dc4a1a8051167b124f1be5f79fdf7fd6e3ef41b97a595d7df",
          "transactionIndex": "0x0",
          "logIndex": "0x0",
          "removed": false
        },
        {
          "address": "0xfe369e19a4e235d36df2026f4251bd98af7a628e",
          "topics": [
            "0x049c28adfe50bcf1b76fd95273b6a24566b9f377e52fddc653c3355248dad07a",
            "0x0000000000000000000000000000000000000000000000000000000000000005",
            "0x000000000000000000000000f697f84f044614e34cdfbd5df99b056af730716b"
          ],
          "data": "0x",
          "blockHash": "0x31b851f7a0359951a9bc4c5280a5eb283af64a7f426b856c0a1f50f2dce49ce3",
          "blockNumber": "0x1894799",
          "blockTimestamp": "0x697a090f",
          "transactionHash": "0x614570da05b29d5dc4a1a8051167b124f1be5f79fdf7fd6e3ef41b97a595d7df",
          "transactionIndex": "0x0",
          "logIndex": "0x1",
          "removed": false
        }
      ],
      "logsBloom": "0x00000000000000000000000000000000000000000000000010002040000000000000200000000000000000000000000000000800000000000000000000000000000010000000000000000004000000000000000000000000000000000000000000000002000000000000000000000000002000000400000000000000100000000000000000100000000000000000001000000800000000000000000000000000000000000000000000000000000000000000000000000000000000000000000000000000000000000000000000000000000000000000000080000000000000000000008000000000000000010000000000000000000000000010000000000000",
      "type": "0x0",
      "transactionHash": "0x614570da05b29d5dc4a1a8051167b124f1be5f79fdf7fd6e3ef41b97a595d7df",
      "transactionIndex": "0x0",
      "blockHash": "0x31b851f7a0359951a9bc4c5280a5eb283af64a7f426b856c0a1f50f2dce49ce3",
      "blockNumber": "0x1894799",
      "gasUsed": "0x24a71",
      "effectiveGasPrice": "0x5f5e100",
      "from": "0xf697f84f044614e34cdfbd5df99b056af730716b",
      "to": "0xfe369e19a4e235d36df2026f4251bd98af7a628e",
      "contractAddress": null
    },
    {
      "status": "0x1",
      "cumulativeGasUsed": "0xafac8",
      "logs": [
        {
          "address": "0xfe369e19a4e235d36df2026f4251bd98af7a628e",
          "topics": [
            "0x049c28adfe50bcf1b76fd95273b6a24566b9f377e52fddc653c3355248dad07a",
            "0x0000000000000000000000000000000000000000000000000000000000000003",
            "0x000000000000000000000000b27bf0b2d6e578976e9b053c3209f1dd949fed7e"
          ],
          "data": "0x",
          "blockHash": "0x4defb17eb72ffd2641272b92f6c444de353f9093b907a68c8422e4ecc1f974f6",
          "blockNumber": "0x189479b",
          "blockTimestamp": "0x697a0911",
          "transactionHash": "0xca00bc03fe44309c6a24950534e46a82c5984f32164fced17a2fa2cf8f5eaaab",
          "transactionIndex": "0x2",
          "logIndex": "0x4",
          "removed": false
        }
      ],
      "logsBloom": "0x00000000000000000000000000000000000000000008000000000000000000000000000000000000000000800000000000000800020000000000000000000000000000000000000000000000000000000000000000000000000000000000000000000002000000000000000000000000002000000400000000000000000000000000000000100000000000000000000000000000000000000000000000000000000000000000000000000000000000000000000000800000000000000000400000000000000000000000000000000000000400000000000080000000000000000000000000000000000000000000000000000000000000000000000000000000",
      "type": "0x0",
      "transactionHash": "0xca00bc03fe44309c6a24950534e46a82c5984f32164fced17a2fa2cf8f5eaaab",
      "transactionIndex": "0x2",
      "blockHash": "0x4defb17eb72ffd2641272b92f6c444de353f9093b907a68c8422e4ecc1f974f6",
      "blockNumber": "0x189479b",
      "gasUsed": "0xe877",
      "effectiveGasPrice": "0x5f5e100",
      "from": "0xb27bf0b2d6e578976e9b053c3209f1dd949fed7e",
      "to": "0xfe369e19a4e235d36df2026f4251bd98af7a628e",
      "contractAddress": null
    },
    {
      "status": "0x1",
      "cumulativeGasUsed": "0x1b2d1a",
      "logs": [
        {
          "address": "0xfe369e19a4e235d36df2026f4251bd98af7a628e",
          "topics": [
            "0x049c28adfe50bcf1b76fd95273b6a24566b9f377e52fddc653c3355248dad07a",
            "0x0000000000000000000000000000000000000000000000000000000000000004",
            "0x000000000000000000000000b27bf0b2d6e578976e9b053c3209f1dd949fed7e"
          ],
          "data": "0x",
          "blockHash": "0xe77f910a9e80d93869d64b8defc3d910bb81da9a86d23f7a8263ec8de8e54f3a",
          "blockNumber": "0x189479d",
          "blockTimestamp": "0x697a0913",
          "transactionHash": "0x1aea39b7bcb5037d3aaebef6f5d115879469e10c9c2707965429cb30c092ad71",
          "transactionIndex": "0x5",
          "logIndex": "0x22",
          "removed": false
        }
      ],
      "logsBloom": "0x00000000000000000000000000000000000000000008000000000000000000000000000000000000000000800000000000000800000000000000000000000000000000000000000000000000000000000000000000000000000000000000000008000002000000000000000000000000002000000400000000000000000000000000000000100000000000000000000000000000000000000000000000000000000000000000000000000000000000000000000000000000002000000000000000000000000000000000000000000000000400008000000080000000000000000000000000000000000000000000000000000000000000000000000000000000",
      "type": "0x0",
      "transactionHash": "0x1aea39b7bcb5037d3aaebef6f5d115879469e10c9c2707965429cb30c092ad71",
      "transactionIndex": "0x5",
      "blockHash": "0xe77f910a9e80d93869d64b8defc3d910bb81da9a86d23f7a8263ec8de8e54f3a",
      "blockNumber": "0x189479d",
      "gasUsed": "0xe877",
      "effectiveGasPrice": "0x5f5e100",
      "from": "0xb27bf0b2d6e578976e9b053c3209f1dd949fed7e",
      "to": "0xfe369e19a4e235d36df2026f4251bd98af7a628e",
      "contractAddress": null
    },
    {
      "status": "0x1",
      "cumulativeGasUsed": "0xe877",
      "logs": [
        {
          "address": "0xfe369e19a4e235d36df2026f4251bd98af7a628e",
          "topics": [
            "0x049c28adfe50bcf1b76fd95273b6a24566b9f377e52fddc653c3355248dad07a",
            "0x0000000000000000000000000000000000000000000000000000000000000005",
            "0x000000000000000000000000b27bf0b2d6e578976e9b053c3209f1dd949fed7e"
          ],
          "data": "0x",
          "blockHash": "0xbaa9fb9532b739e11a49ea5dd2ec16dfcc7ff9a3b0d197f96956b02d4d248f0f",
          "blockNumber": "0x189479f",
          "blockTimestamp": "0x697a0915",
          "transactionHash": "0x3130ef278543d7ee697fd5da5beb42d4855a6806afad0c1a2df3a7fa096d6e4c",
          "transactionIndex": "0x0",
          "logIndex": "0x0",
          "removed": false
        }
      ],
      "logsBloom": "0x00000000000000000000000000000000000000000008000000000000000000000000000000000000000000800000000000000800000000000000000000000000000010000000000000000000000000000000000000000000000000000000000000000002000000000000000000000000002000000400000000000000000000000000000000100000000000000000001000000800000000000000000000000000000000000000000000000000000000000000000000000000000000000000000000000000000000000000000000000000000400000000000080000000000000000000000000000000000000000000000000000000000000000000000000000000",
      "type": "0x0",
      "transactionHash": "0x3130ef278543d7ee697fd5da5beb42d4855a6806afad0c1a2df3a7fa096d6e4c",
      "transactionIndex": "0x0",
      "blockHash": "0xbaa9fb9532b739e11a49ea5dd2ec16dfcc7ff9a3b0d197f96956b02d4d248f0f",
      "blockNumber": "0x189479f",
      "gasUsed": "0xe877",
      "effectiveGasPrice": "0x5f5e100",
      "from": "0xb27bf0b2d6e578976e9b053c3209f1dd949fed7e",
      "to": "0xfe369e19a4e235d36df2026f4251bd98af7a628e",
      "contractAddress": null
    }
  ],
  "libraries": [],
  "pending": [],
  "returns": {},
  "timestamp": 1769605398248,
  "chain": 999,
  "commit": "1a8d1e11"
}